{
  "contractName": "StakingToken",
  "abi": [
    {
      "inputs": [],
      "stateMutability": "nonpayable",
      "type": "constructor"
    },
    {
      "anonymous": false,
      "inputs": [
        {
          "indexed": true,
          "internalType": "address",
          "name": "owner",
          "type": "address"
        },
        {
          "indexed": true,
          "internalType": "address",
          "name": "spender",
          "type": "address"
        },
        {
          "indexed": false,
          "internalType": "uint256",
          "name": "value",
          "type": "uint256"
        }
      ],
      "name": "Approval",
      "type": "event"
    },
    {
      "anonymous": false,
      "inputs": [
        {
          "indexed": true,
          "internalType": "address",
          "name": "from",
          "type": "address"
        },
        {
          "indexed": true,
          "internalType": "address",
          "name": "to",
          "type": "address"
        },
        {
          "indexed": false,
          "internalType": "uint256",
          "name": "value",
          "type": "uint256"
        }
      ],
      "name": "Transfer",
      "type": "event"
    },
    {
      "inputs": [],
      "name": "_totalSupply",
      "outputs": [
        {
          "internalType": "uint256",
          "name": "",
          "type": "uint256"
        }
      ],
      "stateMutability": "view",
      "type": "function",
      "constant": true
    },
    {
      "inputs": [
        {
          "internalType": "address",
          "name": "owner",
          "type": "address"
        },
        {
          "internalType": "address",
          "name": "spender",
          "type": "address"
        }
      ],
      "name": "allowance",
      "outputs": [
        {
          "internalType": "uint256",
          "name": "",
          "type": "uint256"
        }
      ],
      "stateMutability": "view",
      "type": "function",
      "constant": true
    },
    {
      "inputs": [
        {
          "internalType": "address",
          "name": "spender",
          "type": "address"
        },
        {
          "internalType": "uint256",
          "name": "amount",
          "type": "uint256"
        }
      ],
      "name": "approve",
      "outputs": [
        {
          "internalType": "bool",
          "name": "",
          "type": "bool"
        }
      ],
      "stateMutability": "nonpayable",
      "type": "function"
    },
    {
      "inputs": [
        {
          "internalType": "address",
          "name": "account",
          "type": "address"
        }
      ],
      "name": "balanceOf",
      "outputs": [
        {
          "internalType": "uint256",
          "name": "",
          "type": "uint256"
        }
      ],
      "stateMutability": "view",
      "type": "function",
      "constant": true
    },
    {
      "inputs": [],
      "name": "decimals",
      "outputs": [
        {
          "internalType": "uint8",
          "name": "",
          "type": "uint8"
        }
      ],
      "stateMutability": "view",
      "type": "function",
      "constant": true
    },
    {
      "inputs": [
        {
          "internalType": "address",
          "name": "spender",
          "type": "address"
        },
        {
          "internalType": "uint256",
          "name": "subtractedValue",
          "type": "uint256"
        }
      ],
      "name": "decreaseAllowance",
      "outputs": [
        {
          "internalType": "bool",
          "name": "",
          "type": "bool"
        }
      ],
      "stateMutability": "nonpayable",
      "type": "function"
    },
    {
      "inputs": [
        {
          "internalType": "address",
          "name": "spender",
          "type": "address"
        },
        {
          "internalType": "uint256",
          "name": "addedValue",
          "type": "uint256"
        }
      ],
      "name": "increaseAllowance",
      "outputs": [
        {
          "internalType": "bool",
          "name": "",
          "type": "bool"
        }
      ],
      "stateMutability": "nonpayable",
      "type": "function"
    },
    {
      "inputs": [],
      "name": "name",
      "outputs": [
        {
          "internalType": "string",
          "name": "",
          "type": "string"
        }
      ],
      "stateMutability": "view",
      "type": "function",
      "constant": true
    },
    {
      "inputs": [],
      "name": "symbol",
      "outputs": [
        {
          "internalType": "string",
          "name": "",
          "type": "string"
        }
      ],
      "stateMutability": "view",
      "type": "function",
      "constant": true
    },
    {
      "inputs": [],
      "name": "totalSupply",
      "outputs": [
        {
          "internalType": "uint256",
          "name": "",
          "type": "uint256"
        }
      ],
      "stateMutability": "view",
      "type": "function",
      "constant": true
    },
    {
      "inputs": [
        {
          "internalType": "address",
          "name": "to",
          "type": "address"
        },
        {
          "internalType": "uint256",
          "name": "amount",
          "type": "uint256"
        }
      ],
      "name": "transfer",
      "outputs": [
        {
          "internalType": "bool",
          "name": "",
          "type": "bool"
        }
      ],
      "stateMutability": "nonpayable",
      "type": "function"
    },
    {
      "inputs": [
        {
          "internalType": "address",
          "name": "from",
          "type": "address"
        },
        {
          "internalType": "address",
          "name": "to",
          "type": "address"
        },
        {
          "internalType": "uint256",
          "name": "amount",
          "type": "uint256"
        }
      ],
      "name": "transferFrom",
      "outputs": [
        {
          "internalType": "bool",
          "name": "",
          "type": "bool"
        }
      ],
      "stateMutability": "nonpayable",
      "type": "function"
    },
    {
      "inputs": [
        {
          "internalType": "address",
          "name": "to",
          "type": "address"
        },
        {
          "internalType": "uint256",
          "name": "amount",
          "type": "uint256"
        }
      ],
      "name": "mint",
      "outputs": [],
      "stateMutability": "nonpayable",
      "type": "function"
    }
  ],
  "bytecode": "0x60806040523480156200001157600080fd5b506040518060400160405280600c81526020017f5374616b696e67546f6b656e00000000000000000000000000000000000000008152506040518060400160405280600381526020017f53544b0000000000000000000000000000000000000000000000000000000000815250816003908051906020019062000096929190620002bd565b508060049080519060200190620000af929190620002bd565b505050620000f433620000c76200013160201b60201c565b60ff16600a620000d89190620004fa565b620186a0620000e891906200054b565b6200013a60201b60201c565b620001046200013160201b60201c565b60ff16600a620001159190620004fa565b620f42406200012591906200054b565b6005819055506200071f565b60006012905090565b600073ffffffffffffffffffffffffffffffffffffffff168273ffffffffffffffffffffffffffffffffffffffff161415620001ad576040517f08c379a0000000000000000000000000000000000000000000000000000000008152600401620001a4906200060d565b60405180910390fd5b620001c160008383620002b360201b60201c565b8060026000828254620001d591906200062f565b92505081905550806000808473ffffffffffffffffffffffffffffffffffffffff1673ffffffffffffffffffffffffffffffffffffffff16815260200190815260200160002060008282546200022c91906200062f565b925050819055508173ffffffffffffffffffffffffffffffffffffffff16600073ffffffffffffffffffffffffffffffffffffffff167fddf252ad1be2c89b69c2b068fc378daa952ba7f163c4a11628f55a4df523b3ef836040516200029391906200069d565b60405180910390a3620002af60008383620002b860201b60201c565b5050565b505050565b505050565b828054620002cb90620006e9565b90600052602060002090601f016020900481019282620002ef57600085556200033b565b82601f106200030a57805160ff19168380011785556200033b565b828001600101855582156200033b579182015b828111156200033a5782518255916020019190600101906200031d565b5b5090506200034a91906200034e565b5090565b5b80821115620003695760008160009055506001016200034f565b5090565b7f4e487b7100000000000000000000000000000000000000000000000000000000600052601160045260246000fd5b60008160011c9050919050565b6000808291508390505b6001851115620003fb57808604811115620003d357620003d26200036d565b5b6001851615620003e35780820291505b8081029050620003f3856200039c565b9450620003b3565b94509492505050565b600082620004165760019050620004e9565b81620004265760009050620004e9565b81600181146200043f57600281146200044a5762000480565b6001915050620004e9565b60ff8411156200045f576200045e6200036d565b5b8360020a9150848211156200047957620004786200036d565b5b50620004e9565b5060208310610133831016604e8410600b8410161715620004ba5782820a905083811115620004b457620004b36200036d565b5b620004e9565b620004c98484846001620003a9565b92509050818404811115620004e357620004e26200036d565b5b81810290505b9392505050565b6000819050919050565b60006200050782620004f0565b91506200051483620004f0565b9250620005437fffffffffffffffffffffffffffffffffffffffffffffffffffffffffffffffff848462000404565b905092915050565b60006200055882620004f0565b91506200056583620004f0565b9250817fffffffffffffffffffffffffffffffffffffffffffffffffffffffffffffffff0483118215151615620005a157620005a06200036d565b5b828202905092915050565b600082825260208201905092915050565b7f45524332303a206d696e7420746f20746865207a65726f206164647265737300600082015250565b6000620005f5601f83620005ac565b91506200060282620005bd565b602082019050919050565b600060208201905081810360008301526200062881620005e6565b9050919050565b60006200063c82620004f0565b91506200064983620004f0565b9250827fffffffffffffffffffffffffffffffffffffffffffffffffffffffffffffffff038211156200068157620006806200036d565b5b828201905092915050565b6200069781620004f0565b82525050565b6000602082019050620006b460008301846200068c565b92915050565b7f4e487b7100000000000000000000000000000000000000000000000000000000600052602260045260246000fd5b600060028204905060018216806200070257607f821691505b60208210811415620007195762000718620006ba565b5b50919050565b61158e806200072f6000396000f3fe608060405234801561001057600080fd5b50600436106100cf5760003560e01c80633eaaf86b1161008c57806395d89b411161006657806395d89b4114610228578063a457c2d714610246578063a9059cbb14610276578063dd62ed3e146102a6576100cf565b80633eaaf86b146101be57806340c10f19146101dc57806370a08231146101f8576100cf565b806306fdde03146100d4578063095ea7b3146100f257806318160ddd1461012257806323b872dd14610140578063313ce56714610170578063395093511461018e575b600080fd5b6100dc6102d6565b6040516100e99190610ddc565b60405180910390f35b61010c60048036038101906101079190610e97565b610368565b6040516101199190610ef2565b60405180910390f35b61012a61038b565b6040516101379190610f1c565b60405180910390f35b61015a60048036038101906101559190610f37565b610395565b6040516101679190610ef2565b60405180910390f35b6101786103c4565b6040516101859190610fa6565b60405180910390f35b6101a860048036038101906101a39190610e97565b6103cd565b6040516101b59190610ef2565b60405180910390f35b6101c6610477565b6040516101d39190610f1c565b60405180910390f35b6101f660048036038101906101f19190610e97565b61047d565b005b610212600480360381019061020d9190610fc1565b61048b565b60405161021f9190610f1c565b60405180910390f35b6102306104d3565b60405161023d9190610ddc565b60405180910390f35b610260600480360381019061025b9190610e97565b610565565b60405161026d9190610ef2565b60405180910390f35b610290600480360381019061028b9190610e97565b61064f565b60405161029d9190610ef2565b60405180910390f35b6102c060048036038101906102bb9190610fee565b610672565b6040516102cd9190610f1c565b60405180910390f35b6060600380546102e59061105d565b80601f01602080910402602001604051908101604052809291908181526020018280546103119061105d565b801561035e5780601f106103335761010080835404028352916020019161035e565b820191906000526020600020905b81548152906001019060200180831161034157829003601f168201915b5050505050905090565b6000806103736106f9565b9050610380818585610701565b600191505092915050565b6000600254905090565b6000806103a06106f9565b90506103ad8582856108cc565b6103b8858585610958565b60019150509392505050565b60006012905090565b6000806103d86106f9565b905061046c818585600160008673ffffffffffffffffffffffffffffffffffffffff1673ffffffffffffffffffffffffffffffffffffffff16815260200190815260200160002060008973ffffffffffffffffffffffffffffffffffffffff1673ffffffffffffffffffffffffffffffffffffffff1681526020019081526020016000205461046791906110be565b610701565b600191505092915050565b60055481565b6104878282610bd9565b5050565b60008060008373ffffffffffffffffffffffffffffffffffffffff1673ffffffffffffffffffffffffffffffffffffffff168152602001908152602001600020549050919050565b6060600480546104e29061105d565b80601f016020809104026020016040519081016040528092919081815260200182805461050e9061105d565b801561055b5780601f106105305761010080835404028352916020019161055b565b820191906000526020600020905b81548152906001019060200180831161053e57829003601f168201915b5050505050905090565b6000806105706106f9565b90506000600160008373ffffffffffffffffffffffffffffffffffffffff1673ffffffffffffffffffffffffffffffffffffffff16815260200190815260200160002060008673ffffffffffffffffffffffffffffffffffffffff1673ffffffffffffffffffffffffffffffffffffffff16815260200190815260200160002054905083811015610636576040517f08c379a000000000000000000000000000000000000000000000000000000000815260040161062d90611186565b60405180910390fd5b6106438286868403610701565b60019250505092915050565b60008061065a6106f9565b9050610667818585610958565b600191505092915050565b6000600160008473ffffffffffffffffffffffffffffffffffffffff1673ffffffffffffffffffffffffffffffffffffffff16815260200190815260200160002060008373ffffffffffffffffffffffffffffffffffffffff1673ffffffffffffffffffffffffffffffffffffffff16815260200190815260200160002054905092915050565b600033905090565b600073ffffffffffffffffffffffffffffffffffffffff168373ffffffffffffffffffffffffffffffffffffffff161415610771576040517f08c379a000000000000000000000000000000000000000000000000000000000815260040161076890611218565b60405180910390fd5b600073ffffffffffffffffffffffffffffffffffffffff168273ffffffffffffffffffffffffffffffffffffffff1614156107e1576040517f08c379a00000000000000000000000000000000000000000000000000000000081526004016107d8906112aa565b60405180910390fd5b80600160008573ffffffffffffffffffffffffffffffffffffffff1673ffffffffffffffffffffffffffffffffffffffff16815260200190815260200160002060008473ffffffffffffffffffffffffffffffffffffffff1673ffffffffffffffffffffffffffffffffffffffff168152602001908152602001600020819055508173ffffffffffffffffffffffffffffffffffffffff168373ffffffffffffffffffffffffffffffffffffffff167f8c5be1e5ebec7d5bd14f71427d1e84f3dd0314c0f7b2291e5b200ac8c7c3b925836040516108bf9190610f1c565b60405180910390a3505050565b60006108d88484610672565b90507fffffffffffffffffffffffffffffffffffffffffffffffffffffffffffffffff81146109525781811015610944576040517f08c379a000000000000000000000000000000000000000000000000000000000815260040161093b90611316565b60405180910390fd5b6109518484848403610701565b5b50505050565b600073ffffffffffffffffffffffffffffffffffffffff168373ffffffffffffffffffffffffffffffffffffffff1614156109c8576040517f08c379a00000000000000000000000000000000000000000000000000000000081526004016109bf906113a8565b60405180910390fd5b600073ffffffffffffffffffffffffffffffffffffffff168273ffffffffffffffffffffffffffffffffffffffff161415610a38576040517f08c379a0000000000000000000000000000000000000000000000000000000008152600401610a2f9061143a565b60405180910390fd5b610a43838383610d39565b60008060008573ffffffffffffffffffffffffffffffffffffffff1673ffffffffffffffffffffffffffffffffffffffff16815260200190815260200160002054905081811015610ac9576040517f08c379a0000000000000000000000000000000000000000000000000000000008152600401610ac0906114cc565b60405180910390fd5b8181036000808673ffffffffffffffffffffffffffffffffffffffff1673ffffffffffffffffffffffffffffffffffffffff16815260200190815260200160002081905550816000808573ffffffffffffffffffffffffffffffffffffffff1673ffffffffffffffffffffffffffffffffffffffff1681526020019081526020016000206000828254610b5c91906110be565b925050819055508273ffffffffffffffffffffffffffffffffffffffff168473ffffffffffffffffffffffffffffffffffffffff167fddf252ad1be2c89b69c2b068fc378daa952ba7f163c4a11628f55a4df523b3ef84604051610bc09190610f1c565b60405180910390a3610bd3848484610d3e565b50505050565b600073ffffffffffffffffffffffffffffffffffffffff168273ffffffffffffffffffffffffffffffffffffffff161415610c49576040517f08c379a0000000000000000000000000000000000000000000000000000000008152600401610c4090611538565b60405180910390fd5b610c5560008383610d39565b8060026000828254610c6791906110be565b92505081905550806000808473ffffffffffffffffffffffffffffffffffffffff1673ffffffffffffffffffffffffffffffffffffffff1681526020019081526020016000206000828254610cbc91906110be565b925050819055508173ffffffffffffffffffffffffffffffffffffffff16600073ffffffffffffffffffffffffffffffffffffffff167fddf252ad1be2c89b69c2b068fc378daa952ba7f163c4a11628f55a4df523b3ef83604051610d219190610f1c565b60405180910390a3610d3560008383610d3e565b5050565b505050565b505050565b600081519050919050565b600082825260208201905092915050565b60005b83811015610d7d578082015181840152602081019050610d62565b83811115610d8c576000848401525b50505050565b6000601f19601f8301169050919050565b6000610dae82610d43565b610db88185610d4e565b9350610dc8818560208601610d5f565b610dd181610d92565b840191505092915050565b60006020820190508181036000830152610df68184610da3565b905092915050565b600080fd5b600073ffffffffffffffffffffffffffffffffffffffff82169050919050565b6000610e2e82610e03565b9050919050565b610e3e81610e23565b8114610e4957600080fd5b50565b600081359050610e5b81610e35565b92915050565b6000819050919050565b610e7481610e61565b8114610e7f57600080fd5b50565b600081359050610e9181610e6b565b92915050565b60008060408385031215610eae57610ead610dfe565b5b6000610ebc85828601610e4c565b9250506020610ecd85828601610e82565b9150509250929050565b60008115159050919050565b610eec81610ed7565b82525050565b6000602082019050610f076000830184610ee3565b92915050565b610f1681610e61565b82525050565b6000602082019050610f316000830184610f0d565b92915050565b600080600060608486031215610f5057610f4f610dfe565b5b6000610f5e86828701610e4c565b9350506020610f6f86828701610e4c565b9250506040610f8086828701610e82565b9150509250925092565b600060ff82169050919050565b610fa081610f8a565b82525050565b6000602082019050610fbb6000830184610f97565b92915050565b600060208284031215610fd757610fd6610dfe565b5b6000610fe584828501610e4c565b91505092915050565b6000806040838503121561100557611004610dfe565b5b600061101385828601610e4c565b925050602061102485828601610e4c565b9150509250929050565b7f4e487b7100000000000000000000000000000000000000000000000000000000600052602260045260246000fd5b6000600282049050600182168061107557607f821691505b602082108114156110895761108861102e565b5b50919050565b7f4e487b7100000000000000000000000000000000000000000000000000000000600052601160045260246000fd5b60006110c982610e61565b91506110d483610e61565b9250827fffffffffffffffffffffffffffffffffffffffffffffffffffffffffffffffff038211156111095761110861108f565b5b828201905092915050565b7f45524332303a2064656372656173656420616c6c6f77616e63652062656c6f7760008201527f207a65726f000000000000000000000000000000000000000000000000000000602082015250565b6000611170602583610d4e565b915061117b82611114565b604082019050919050565b6000602082019050818103600083015261119f81611163565b9050919050565b7f45524332303a20617070726f76652066726f6d20746865207a65726f2061646460008201527f7265737300000000000000000000000000000000000000000000000000000000602082015250565b6000611202602483610d4e565b915061120d826111a6565b604082019050919050565b60006020820190508181036000830152611231816111f5565b9050919050565b7f45524332303a20617070726f766520746f20746865207a65726f20616464726560008201527f7373000000000000000000000000000000000000000000000000000000000000602082015250565b6000611294602283610d4e565b915061129f82611238565b604082019050919050565b600060208201905081810360008301526112c381611287565b9050919050565b7f45524332303a20696e73756666696369656e7420616c6c6f77616e6365000000600082015250565b6000611300601d83610d4e565b915061130b826112ca565b602082019050919050565b6000602082019050818103600083015261132f816112f3565b9050919050565b7f45524332303a207472616e736665722066726f6d20746865207a65726f20616460008201527f6472657373000000000000000000000000000000000000000000000000000000602082015250565b6000611392602583610d4e565b915061139d82611336565b604082019050919050565b600060208201905081810360008301526113c181611385565b9050919050565b7f45524332303a207472616e7366657220746f20746865207a65726f206164647260008201527f6573730000000000000000000000000000000000000000000000000000000000602082015250565b6000611424602383610d4e565b915061142f826113c8565b604082019050919050565b6000602082019050818103600083015261145381611417565b9050919050565b7f45524332303a207472616e7366657220616d6f756e742065786365656473206260008201527f616c616e63650000000000000000000000000000000000000000000000000000602082015250565b60006114b6602683610d4e565b91506114c18261145a565b604082019050919050565b600060208201905081810360008301526114e5816114a9565b9050919050565b7f45524332303a206d696e7420746f20746865207a65726f206164647265737300600082015250565b6000611522601f83610d4e565b915061152d826114ec565b602082019050919050565b6000602082019050818103600083015261155181611515565b905091905056fea26469706673582212201afc5f368666cad4c53ce570745403d4a42c8508865e74c3c558a59a30fc90a664736f6c634300080b0033",
  "immutableReferences": {},
  "source": "// SPDX-License-Identifier: MIT\r\npragma solidity ^0.8.11;\r\n\r\nimport \"@openzeppelin/contracts/token/ERC20/ERC20.sol\";\r\n\r\ncontract StakingToken is ERC20 {\r\n    uint public _totalSupply;\r\n\r\n    constructor() ERC20(\"StakingToken\", \"STK\") {\r\n        _mint(msg.sender, 100000 * (10 ** uint256(decimals())));\r\n        _totalSupply = 1000000 * (10 ** uint256(decimals()));\r\n    }\r\n\r\n    function mint(address to, uint256 amount) public {\r\n        _mint(to, amount);\r\n    }\r\n\r\n    // function sendCoin(address receiver, uint amount) public returns(bool sufficient) {\r\n    //     if (_balances[msg.sender] < amount) return false;\r\n    //     _balances[msg.sender] -= amount;\r\n    //     _balances[receiver] += amount;\r\n    //     emit Transfer(msg.sender, receiver, amount);\r\n    //     return true;\r\n    // }\r\n}",
  "sourcePath": "F:\\coding\\learning\\youtube-projects\\solidity\\uniswap\\liquidityprovider\\colinstake\\colinstake\\contracts\\StakingToken.sol",
  "compiler": {
    "name": "solc",
    "version": "0.8.11+commit.d7f03943.Emscripten.clang"
  },
  "schemaVersion": "3.4.4",
  "updatedAt": "2022-03-24T01:16:48.792Z",
  "networkType": "ethereum",
  "devdoc": {
    "kind": "dev",
    "methods": {
      "allowance(address,address)": {
        "details": "See {IERC20-allowance}."
      },
      "approve(address,uint256)": {
        "details": "See {IERC20-approve}. NOTE: If `amount` is the maximum `uint256`, the allowance is not updated on `transferFrom`. This is semantically equivalent to an infinite approval. Requirements: - `spender` cannot be the zero address."
      },
      "balanceOf(address)": {
        "details": "See {IERC20-balanceOf}."
      },
      "decimals()": {
        "details": "Returns the number of decimals used to get its user representation. For example, if `decimals` equals `2`, a balance of `505` tokens should be displayed to a user as `5.05` (`505 / 10 ** 2`). Tokens usually opt for a value of 18, imitating the relationship between Ether and Wei. This is the value {ERC20} uses, unless this function is overridden; NOTE: This information is only used for _display_ purposes: it in no way affects any of the arithmetic of the contract, including {IERC20-balanceOf} and {IERC20-transfer}."
      },
      "decreaseAllowance(address,uint256)": {
        "details": "Atomically decreases the allowance granted to `spender` by the caller. This is an alternative to {approve} that can be used as a mitigation for problems described in {IERC20-approve}. Emits an {Approval} event indicating the updated allowance. Requirements: - `spender` cannot be the zero address. - `spender` must have allowance for the caller of at least `subtractedValue`."
      },
      "increaseAllowance(address,uint256)": {
        "details": "Atomically increases the allowance granted to `spender` by the caller. This is an alternative to {approve} that can be used as a mitigation for problems described in {IERC20-approve}. Emits an {Approval} event indicating the updated allowance. Requirements: - `spender` cannot be the zero address."
      },
      "name()": {
        "details": "Returns the name of the token."
      },
      "symbol()": {
        "details": "Returns the symbol of the token, usually a shorter version of the name."
      },
      "totalSupply()": {
        "details": "See {IERC20-totalSupply}."
      },
      "transfer(address,uint256)": {
        "details": "See {IERC20-transfer}. Requirements: - `to` cannot be the zero address. - the caller must have a balance of at least `amount`."
      },
      "transferFrom(address,address,uint256)": {
        "details": "See {IERC20-transferFrom}. Emits an {Approval} event indicating the updated allowance. This is not required by the EIP. See the note at the beginning of {ERC20}. NOTE: Does not update the allowance if the current allowance is the maximum `uint256`. Requirements: - `from` and `to` cannot be the zero address. - `from` must have a balance of at least `amount`. - the caller must have allowance for ``from``'s tokens of at least `amount`."
      }
    },
    "version": 1
  },
  "userdoc": {
    "kind": "user",
    "methods": {},
    "version": 1
  }
}