{
  "contractName": "TokenFarm",
  "abi": [
    {
      "inputs": [
        {
          "internalType": "contract StakingToken",
          "name": "_stakingToken",
          "type": "address"
        },
        {
          "internalType": "contract RewardToken",
          "name": "_rewardToken",
          "type": "address"
        }
      ],
      "stateMutability": "nonpayable",
      "type": "constructor"
    },
    {
      "anonymous": false,
      "inputs": [
        {
          "indexed": true,
          "internalType": "address",
          "name": "from",
          "type": "address"
        },
        {
          "indexed": false,
          "internalType": "uint256",
          "name": "amount",
          "type": "uint256"
        }
      ],
      "name": "Stake",
      "type": "event"
    },
    {
      "anonymous": false,
      "inputs": [
        {
          "indexed": true,
          "internalType": "address",
          "name": "from",
          "type": "address"
        },
        {
          "indexed": false,
          "internalType": "uint256",
          "name": "amount",
          "type": "uint256"
        }
      ],
      "name": "Unstake",
      "type": "event"
    },
    {
      "anonymous": false,
      "inputs": [
        {
          "indexed": true,
          "internalType": "address",
          "name": "to",
          "type": "address"
        },
        {
          "indexed": false,
          "internalType": "uint256",
          "name": "amount",
          "type": "uint256"
        }
      ],
      "name": "YieldWithdraw",
      "type": "event"
    },
    {
      "inputs": [
        {
          "internalType": "address",
          "name": "",
          "type": "address"
        }
      ],
      "name": "isStaking",
      "outputs": [
        {
          "internalType": "bool",
          "name": "",
          "type": "bool"
        }
      ],
      "stateMutability": "view",
      "type": "function",
      "constant": true
    },
    {
      "inputs": [],
      "name": "name",
      "outputs": [
        {
          "internalType": "string",
          "name": "",
          "type": "string"
        }
      ],
      "stateMutability": "view",
      "type": "function",
      "constant": true
    },
    {
      "inputs": [],
      "name": "owner",
      "outputs": [
        {
          "internalType": "address",
          "name": "",
          "type": "address"
        }
      ],
      "stateMutability": "view",
      "type": "function",
      "constant": true
    },
    {
      "inputs": [],
      "name": "rewardToken",
      "outputs": [
        {
          "internalType": "contract RewardToken",
          "name": "",
          "type": "address"
        }
      ],
      "stateMutability": "view",
      "type": "function",
      "constant": true
    },
    {
      "inputs": [
        {
          "internalType": "address",
          "name": "",
          "type": "address"
        }
      ],
      "name": "rewardTokenBalance",
      "outputs": [
        {
          "internalType": "uint256",
          "name": "",
          "type": "uint256"
        }
      ],
      "stateMutability": "view",
      "type": "function",
      "constant": true
    },
    {
      "inputs": [
        {
          "internalType": "uint256",
          "name": "",
          "type": "uint256"
        }
      ],
      "name": "stakers",
      "outputs": [
        {
          "internalType": "address",
          "name": "",
          "type": "address"
        }
      ],
      "stateMutability": "view",
      "type": "function",
      "constant": true
    },
    {
      "inputs": [
        {
          "internalType": "address",
          "name": "",
          "type": "address"
        }
      ],
      "name": "stakingBalance",
      "outputs": [
        {
          "internalType": "uint256",
          "name": "",
          "type": "uint256"
        }
      ],
      "stateMutability": "view",
      "type": "function",
      "constant": true
    },
    {
      "inputs": [],
      "name": "stakingToken",
      "outputs": [
        {
          "internalType": "contract StakingToken",
          "name": "",
          "type": "address"
        }
      ],
      "stateMutability": "view",
      "type": "function",
      "constant": true
    },
    {
      "inputs": [
        {
          "internalType": "address",
          "name": "",
          "type": "address"
        }
      ],
      "name": "startTime",
      "outputs": [
        {
          "internalType": "uint256",
          "name": "",
          "type": "uint256"
        }
      ],
      "stateMutability": "view",
      "type": "function",
      "constant": true
    },
    {
      "inputs": [
        {
          "internalType": "uint256",
          "name": "_amount",
          "type": "uint256"
        }
      ],
      "name": "stakeTokens",
      "outputs": [],
      "stateMutability": "nonpayable",
      "type": "function"
    },
    {
      "inputs": [
        {
          "internalType": "uint256",
          "name": "_amount",
          "type": "uint256"
        }
      ],
      "name": "unstakeTokens",
      "outputs": [],
      "stateMutability": "nonpayable",
      "type": "function"
    },
    {
      "inputs": [],
      "name": "withdrawYield",
      "outputs": [],
      "stateMutability": "nonpayable",
      "type": "function"
    },
    {
      "inputs": [
        {
          "internalType": "address",
          "name": "user",
          "type": "address"
        }
      ],
      "name": "calculateYieldTime",
      "outputs": [
        {
          "internalType": "uint256",
          "name": "",
          "type": "uint256"
        }
      ],
      "stateMutability": "view",
      "type": "function",
      "constant": true
    },
    {
      "inputs": [
        {
          "internalType": "address",
          "name": "user",
          "type": "address"
        }
      ],
      "name": "calculateYieldTotal",
      "outputs": [
        {
          "internalType": "uint256",
          "name": "",
          "type": "uint256"
        }
      ],
      "stateMutability": "view",
      "type": "function",
      "constant": true
    }
  ],
  "bytecode": "0x60806040526040518060400160405280601081526020017f436f6c696e20546f6b656e204661726d00000000000000000000000000000000815250600090805190602001906200005192919062000150565b503480156200005f57600080fd5b506040516200199e3803806200199e8339818101604052810190620000859190620002c3565b81600260006101000a81548173ffffffffffffffffffffffffffffffffffffffff021916908373ffffffffffffffffffffffffffffffffffffffff16021790555080600360006101000a81548173ffffffffffffffffffffffffffffffffffffffff021916908373ffffffffffffffffffffffffffffffffffffffff16021790555033600160006101000a81548173ffffffffffffffffffffffffffffffffffffffff021916908373ffffffffffffffffffffffffffffffffffffffff16021790555050506200036f565b8280546200015e9062000339565b90600052602060002090601f016020900481019282620001825760008555620001ce565b82601f106200019d57805160ff1916838001178555620001ce565b82800160010185558215620001ce579182015b82811115620001cd578251825591602001919060010190620001b0565b5b509050620001dd9190620001e1565b5090565b5b80821115620001fc576000816000905550600101620001e2565b5090565b600080fd5b600073ffffffffffffffffffffffffffffffffffffffff82169050919050565b6000620002328262000205565b9050919050565b6000620002468262000225565b9050919050565b620002588162000239565b81146200026457600080fd5b50565b60008151905062000278816200024d565b92915050565b60006200028b8262000225565b9050919050565b6200029d816200027e565b8114620002a957600080fd5b50565b600081519050620002bd8162000292565b92915050565b60008060408385031215620002dd57620002dc62000200565b5b6000620002ed8582860162000267565b92505060206200030085828601620002ac565b9150509250929050565b7f4e487b7100000000000000000000000000000000000000000000000000000000600052602260045260246000fd5b600060028204905060018216806200035257607f821691505b602082108114156200036957620003686200030a565b5b50919050565b61161f806200037f6000396000f3fe608060405234801561001057600080fd5b50600436106100ea5760003560e01c80637547c7a31161008c578063980d611611610066578063980d611614610271578063e507a8a4146102a1578063f7c618c1146102ab578063fd5e6dd1146102c9576100ea565b80637547c7a3146102075780638da5cb5b1461022357806394bbf43814610241576100ea565b8063608e4dd0116100c8578063608e4dd01461016d5780636e1dc66e146101895780636f49712b146101b957806372f702f3146101e9576100ea565b806306872661146100ef57806306fdde031461011f57806345bc78ab1461013d575b600080fd5b61010960048036038101906101049190610f8d565b6102f9565b6040516101169190610fd3565b60405180910390f35b6101276103a0565b6040516101349190611087565b60405180910390f35b61015760048036038101906101529190610f8d565b61042e565b6040516101649190610fd3565b60405180910390f35b610187600480360381019061018291906110d5565b610446565b005b6101a3600480360381019061019e9190610f8d565b6107c2565b6040516101b09190610fd3565b60405180910390f35b6101d360048036038101906101ce9190610f8d565b6107da565b6040516101e0919061111d565b60405180910390f35b6101f16107fa565b6040516101fe9190611197565b60405180910390f35b610221600480360381019061021c91906110d5565b610820565b005b61022b610b8a565b60405161023891906111c1565b60405180910390f35b61025b60048036038101906102569190610f8d565b610bb0565b6040516102689190610fd3565b60405180910390f35b61028b60048036038101906102869190610f8d565b610bc8565b6040516102989190610fd3565b60405180910390f35b6102a9610c27565b005b6102b3610ec5565b6040516102c091906111fd565b60405180910390f35b6102e360048036038101906102de91906110d5565b610eeb565b6040516102f091906111c1565b60405180910390f35b600080670de0b6b3a764000061030e84610bc8565b6103189190611247565b905060006201518090506000818361033091906112d0565b90506000670de0b6b3a764000082600560008973ffffffffffffffffffffffffffffffffffffffff1673ffffffffffffffffffffffffffffffffffffffff168152602001908152602001600020546103889190611247565b61039291906112d0565b905080945050505050919050565b600080546103ad90611330565b80601f01602080910402602001604051908101604052809291908181526020018280546103d990611330565b80156104265780601f106103fb57610100808354040283529160200191610426565b820191906000526020600020905b81548152906001019060200180831161040957829003601f168201915b505050505081565b60056020528060005260406000206000915090505481565b60018015610493575080600560003373ffffffffffffffffffffffffffffffffffffffff1673ffffffffffffffffffffffffffffffffffffffff1681526020019081526020016000205410155b600660003373ffffffffffffffffffffffffffffffffffffffff1673ffffffffffffffffffffffffffffffffffffffff16815260200190815260200160002060006101000a81548160ff0219169083151502179055610527576040517f08c379a000000000000000000000000000000000000000000000000000000000815260040161051e906113ae565b60405180910390fd5b6000610532336102f9565b905042600760003373ffffffffffffffffffffffffffffffffffffffff1673ffffffffffffffffffffffffffffffffffffffff1681526020019081526020016000208190555060008290506000925080600560003373ffffffffffffffffffffffffffffffffffffffff1673ffffffffffffffffffffffffffffffffffffffff16815260200190815260200160002060008282546105d091906113ce565b92505081905550600260009054906101000a900473ffffffffffffffffffffffffffffffffffffffff1673ffffffffffffffffffffffffffffffffffffffff1663a9059cbb33836040518363ffffffff1660e01b8152600401610634929190611402565b6020604051808303816000875af1158015610653573d6000803e3d6000fd5b505050506040513d601f19601f820116820180604052508101906106779190611457565b5081600860003373ffffffffffffffffffffffffffffffffffffffff1673ffffffffffffffffffffffffffffffffffffffff16815260200190815260200160002060008282546106c79190611484565b925050819055506000600560003373ffffffffffffffffffffffffffffffffffffffff1673ffffffffffffffffffffffffffffffffffffffff16815260200190815260200160002054141561076f576000600660003373ffffffffffffffffffffffffffffffffffffffff1673ffffffffffffffffffffffffffffffffffffffff16815260200190815260200160002060006101000a81548160ff0219169083151502179055505b3373ffffffffffffffffffffffffffffffffffffffff167f85082129d87b2fe11527cb1b3b7a520aeb5aa6913f88a3d8757fe40d1db02fdd826040516107b59190610fd3565b60405180910390a2505050565b60076020528060005260406000206000915090505481565b60066020528060005260406000206000915054906101000a900460ff1681565b600260009054906101000a900473ffffffffffffffffffffffffffffffffffffffff1681565b60008111801561086f575080600560003373ffffffffffffffffffffffffffffffffffffffff1673ffffffffffffffffffffffffffffffffffffffff1681526020019081526020016000205410155b6108ae576040517f08c379a00000000000000000000000000000000000000000000000000000000081526004016108a590611526565b60405180910390fd5b60011515600660003373ffffffffffffffffffffffffffffffffffffffff1673ffffffffffffffffffffffffffffffffffffffff16815260200190815260200160002060009054906101000a900460ff161515141561096c576000610912336102f9565b905080600560003373ffffffffffffffffffffffffffffffffffffffff1673ffffffffffffffffffffffffffffffffffffffff16815260200190815260200160002060008282546109639190611484565b92505081905550505b600260009054906101000a900473ffffffffffffffffffffffffffffffffffffffff1673ffffffffffffffffffffffffffffffffffffffff166323b872dd3330846040518463ffffffff1660e01b81526004016109cb93929190611546565b6020604051808303816000875af11580156109ea573d6000803e3d6000fd5b505050506040513d601f19601f82011682018060405250810190610a0e9190611457565b5080600560003373ffffffffffffffffffffffffffffffffffffffff1673ffffffffffffffffffffffffffffffffffffffff16815260200190815260200160002054610a5a9190611484565b600560003373ffffffffffffffffffffffffffffffffffffffff1673ffffffffffffffffffffffffffffffffffffffff1681526020019081526020016000208190555042600760003373ffffffffffffffffffffffffffffffffffffffff1673ffffffffffffffffffffffffffffffffffffffff168152602001908152602001600020819055506001600660003373ffffffffffffffffffffffffffffffffffffffff1673ffffffffffffffffffffffffffffffffffffffff16815260200190815260200160002060006101000a81548160ff0219169083151502179055503373ffffffffffffffffffffffffffffffffffffffff167febedb8b3c678666e7f36970bc8f57abf6d8fa2e828c0da91ea5b75bf68ed101a82604051610b7f9190610fd3565b60405180910390a250565b600160009054906101000a900473ffffffffffffffffffffffffffffffffffffffff1681565b60086020528060005260406000206000915090505481565b6000804290506000600760008573ffffffffffffffffffffffffffffffffffffffff1673ffffffffffffffffffffffffffffffffffffffff1681526020019081526020016000205482610c1b91906113ce565b90508092505050919050565b6000610c32336102f9565b90506000811180610c8257506000600860003373ffffffffffffffffffffffffffffffffffffffff1673ffffffffffffffffffffffffffffffffffffffff16815260200190815260200160002054115b610cc1576040517f08c379a0000000000000000000000000000000000000000000000000000000008152600401610cb8906115c9565b60405180910390fd5b6000600860003373ffffffffffffffffffffffffffffffffffffffff1673ffffffffffffffffffffffffffffffffffffffff1681526020019081526020016000205414610da1576000600860003373ffffffffffffffffffffffffffffffffffffffff1673ffffffffffffffffffffffffffffffffffffffff1681526020019081526020016000205490506000600860003373ffffffffffffffffffffffffffffffffffffffff1673ffffffffffffffffffffffffffffffffffffffff168152602001908152602001600020819055508082610d9d9190611484565b9150505b42600760003373ffffffffffffffffffffffffffffffffffffffff1673ffffffffffffffffffffffffffffffffffffffff16815260200190815260200160002081905550600360009054906101000a900473ffffffffffffffffffffffffffffffffffffffff1673ffffffffffffffffffffffffffffffffffffffff166340c10f1933836040518363ffffffff1660e01b8152600401610e42929190611402565b600060405180830381600087803b158015610e5c57600080fd5b505af1158015610e70573d6000803e3d6000fd5b505050503373ffffffffffffffffffffffffffffffffffffffff167f92044e3943309ee5950e21bc7421d02c1df75f0df33c0d97c1143687b49a4c5782604051610eba9190610fd3565b60405180910390a250565b600360009054906101000a900473ffffffffffffffffffffffffffffffffffffffff1681565b60048181548110610efb57600080fd5b906000526020600020016000915054906101000a900473ffffffffffffffffffffffffffffffffffffffff1681565b600080fd5b600073ffffffffffffffffffffffffffffffffffffffff82169050919050565b6000610f5a82610f2f565b9050919050565b610f6a81610f4f565b8114610f7557600080fd5b50565b600081359050610f8781610f61565b92915050565b600060208284031215610fa357610fa2610f2a565b5b6000610fb184828501610f78565b91505092915050565b6000819050919050565b610fcd81610fba565b82525050565b6000602082019050610fe86000830184610fc4565b92915050565b600081519050919050565b600082825260208201905092915050565b60005b8381101561102857808201518184015260208101905061100d565b83811115611037576000848401525b50505050565b6000601f19601f8301169050919050565b600061105982610fee565b6110638185610ff9565b935061107381856020860161100a565b61107c8161103d565b840191505092915050565b600060208201905081810360008301526110a1818461104e565b905092915050565b6110b281610fba565b81146110bd57600080fd5b50565b6000813590506110cf816110a9565b92915050565b6000602082840312156110eb576110ea610f2a565b5b60006110f9848285016110c0565b91505092915050565b60008115159050919050565b61111781611102565b82525050565b6000602082019050611132600083018461110e565b92915050565b6000819050919050565b600061115d61115861115384610f2f565b611138565b610f2f565b9050919050565b600061116f82611142565b9050919050565b600061118182611164565b9050919050565b61119181611176565b82525050565b60006020820190506111ac6000830184611188565b92915050565b6111bb81610f4f565b82525050565b60006020820190506111d660008301846111b2565b92915050565b60006111e782611164565b9050919050565b6111f7816111dc565b82525050565b600060208201905061121260008301846111ee565b92915050565b7f4e487b7100000000000000000000000000000000000000000000000000000000600052601160045260246000fd5b600061125282610fba565b915061125d83610fba565b9250817fffffffffffffffffffffffffffffffffffffffffffffffffffffffffffffffff048311821515161561129657611295611218565b5b828202905092915050565b7f4e487b7100000000000000000000000000000000000000000000000000000000600052601260045260246000fd5b60006112db82610fba565b91506112e683610fba565b9250826112f6576112f56112a1565b5b828204905092915050565b7f4e487b7100000000000000000000000000000000000000000000000000000000600052602260045260246000fd5b6000600282049050600182168061134857607f821691505b6020821081141561135c5761135b611301565b5b50919050565b7f4e6f7468696e6720746f20756e7374616b650000000000000000000000000000600082015250565b6000611398601283610ff9565b91506113a382611362565b602082019050919050565b600060208201905081810360008301526113c78161138b565b9050919050565b60006113d982610fba565b91506113e483610fba565b9250828210156113f7576113f6611218565b5b828203905092915050565b600060408201905061141760008301856111b2565b6114246020830184610fc4565b9392505050565b61143481611102565b811461143f57600080fd5b50565b6000815190506114518161142b565b92915050565b60006020828403121561146d5761146c610f2a565b5b600061147b84828501611442565b91505092915050565b600061148f82610fba565b915061149a83610fba565b9250827fffffffffffffffffffffffffffffffffffffffffffffffffffffffffffffffff038211156114cf576114ce611218565b5b828201905092915050565b7f596f752063616e6e6f74207374616b65207a65726f20746f6b656e7300000000600082015250565b6000611510601c83610ff9565b915061151b826114da565b602082019050919050565b6000602082019050818103600083015261153f81611503565b9050919050565b600060608201905061155b60008301866111b2565b61156860208301856111b2565b6115756040830184610fc4565b949350505050565b7f4e6f7468696e6720746f20776974686472617700000000000000000000000000600082015250565b60006115b3601383610ff9565b91506115be8261157d565b602082019050919050565b600060208201905081810360008301526115e2816115a6565b905091905056fea2646970667358221220ff188f8da13a12049b90b8be1592f79e3f063af6fd049ef4975293bb47d39fd364736f6c634300080b0033",
  "immutableReferences": {},
  "source": "// SPDX-License-Identifier: MIT\r\npragma solidity ^0.8.11;\r\n\r\nimport \"@openzeppelin/contracts/token/ERC20/IERC20.sol\";\r\nimport \"./StakingToken.sol\";\r\nimport \"./RewardToken.sol\";\r\n\r\ncontract TokenFarm {\t\t\r\n\tstring public name = \"Colin Token Farm\";\r\n\taddress public owner;\r\n\tStakingToken public stakingToken;\r\n\tRewardToken public rewardToken;\t\r\n\r\n\taddress[] public stakers;\r\n\r\n    // staker address to balance mapping\r\n\tmapping(address => uint) public stakingBalance;\r\n\r\n\tmapping(address => bool) public isStaking;\r\n\r\n\t// userAddress => timeStamp\r\n    mapping(address => uint256) public startTime;\r\n\r\n\t// userAddress => pmknBalance\r\n    mapping(address => uint256) public rewardTokenBalance;\r\n\r\n\t// event to emit when stake/unstake/yieldwithdraw\r\n    event Stake(address indexed from, uint256 amount);\r\n    event Unstake(address indexed from, uint256 amount);\r\n    event YieldWithdraw(address indexed to, uint256 amount); \r\n\r\n\tconstructor(StakingToken _stakingToken, RewardToken _rewardToken) public {\r\n\t\tstakingToken = _stakingToken;\r\n\t\trewardToken = _rewardToken;\r\n\t\towner = msg.sender;\r\n\t}\r\n\r\n    // stake/deposit token\r\n\tfunction stakeTokens(uint _amount) public {\r\n\r\n\t\trequire(\r\n            _amount > 0 &&\r\n            stakingBalance[msg.sender] >= _amount, \r\n            \"You cannot stake zero tokens\");\r\n\r\n\t\tif(isStaking[msg.sender] == true){\r\n            uint256 toTransfer = calculateYieldTotal(msg.sender);\r\n            stakingBalance[msg.sender] += toTransfer;\r\n        }\r\n\r\n\t\t// transfer staking token from sender to this contract\r\n\t\tstakingToken.transferFrom(msg.sender, address(this), _amount);\r\n\r\n\t\t// update staking balance\r\n\t\tstakingBalance[msg.sender] = stakingBalance[msg.sender] + _amount;\r\n\r\n\t\tstartTime[msg.sender] = block.timestamp;\t\t\r\n\r\n\t\t// update stakng status\r\n\t\tisStaking[msg.sender] = true;\r\n\t\temit Stake(msg.sender, _amount);\r\n\t}\r\n\r\n\t// unstake/withdraw\r\n\tfunction unstakeTokens(uint256 _amount) public {\r\n\r\n\t\trequire(\r\n            isStaking[msg.sender] = true &&\r\n            stakingBalance[msg.sender] >= _amount, \r\n            \"Nothing to unstake\"\r\n        );\r\n\r\n\t\tuint256 yieldTransfer = calculateYieldTotal(msg.sender);\r\n        startTime[msg.sender] = block.timestamp;\r\n        uint256 balTransfer = _amount;\r\n        _amount = 0;\r\n        stakingBalance[msg.sender] -= balTransfer;\r\n        stakingToken.transfer(msg.sender, balTransfer);\r\n        rewardTokenBalance[msg.sender] += yieldTransfer;\r\n        if(stakingBalance[msg.sender] == 0){\r\n            isStaking[msg.sender] = false;\r\n        }\r\n        emit Unstake(msg.sender, balTransfer);\r\n\t}\r\n\r\n\r\n    function withdrawYield() public {\r\n        uint256 toTransfer = calculateYieldTotal(msg.sender);\r\n\r\n        require(\r\n            toTransfer > 0 ||\r\n            rewardTokenBalance[msg.sender] > 0,\r\n            \"Nothing to withdraw\"\r\n            );\r\n            \r\n        if(rewardTokenBalance[msg.sender] != 0){\r\n            uint256 oldBalance = rewardTokenBalance[msg.sender];\r\n            rewardTokenBalance[msg.sender] = 0;\r\n            toTransfer += oldBalance;\r\n        }\r\n\r\n        startTime[msg.sender] = block.timestamp;\r\n\t\t// mint new token for user\r\n        rewardToken.mint(msg.sender, toTransfer);\r\n        emit YieldWithdraw(msg.sender, toTransfer);\r\n    } \r\n\r\n\tfunction calculateYieldTime(address user) public view returns(uint256) {\r\n        uint256 end = block.timestamp;\r\n        uint256 totalTime = end - startTime[user];\r\n        return totalTime;\r\n    }\r\n\r\n\tfunction calculateYieldTotal(address user) public view returns(uint256) {\r\n        uint256 time = calculateYieldTime(user) * 10**18;\r\n        uint256 rate = 86400;\r\n        uint256 timeRate = time / rate;\r\n        uint256 rawYield = (stakingBalance[user] * timeRate) / 10**18;\r\n        return rawYield;\r\n    } \r\n}",
  "sourcePath": "F:\\coding\\learning\\youtube-projects\\solidity\\uniswap\\liquidityprovider\\colinstake\\colinstake\\contracts\\TokenFarm.sol",
  "compiler": {
    "name": "solc",
    "version": "0.8.11+commit.d7f03943.Emscripten.clang"
  },
  "schemaVersion": "3.4.4",
  "updatedAt": "2022-03-22T05:52:43.792Z",
  "networkType": "ethereum",
  "devdoc": {
    "kind": "dev",
    "methods": {},
    "version": 1
  },
  "userdoc": {
    "kind": "user",
    "methods": {},
    "version": 1
  }
}