{
  "contractName": "TokenFarm",
  "abi": [
    {
      "inputs": [
        {
          "internalType": "contract StakingToken",
          "name": "_stakingToken",
          "type": "address"
        },
        {
          "internalType": "contract RewardToken",
          "name": "_rewardToken",
          "type": "address"
        }
      ],
      "stateMutability": "nonpayable",
      "type": "constructor"
    },
    {
      "anonymous": false,
      "inputs": [
        {
          "indexed": true,
          "internalType": "address",
          "name": "from",
          "type": "address"
        },
        {
          "indexed": false,
          "internalType": "string",
          "name": "message",
          "type": "string"
        }
      ],
      "name": "ConsoleLog",
      "type": "event"
    },
    {
      "anonymous": false,
      "inputs": [
        {
          "indexed": true,
          "internalType": "address",
          "name": "from",
          "type": "address"
        },
        {
          "indexed": false,
          "internalType": "uint256",
          "name": "amount",
          "type": "uint256"
        }
      ],
      "name": "ExpectedYield",
      "type": "event"
    },
    {
      "anonymous": false,
      "inputs": [
        {
          "indexed": true,
          "internalType": "address",
          "name": "from",
          "type": "address"
        },
        {
          "indexed": false,
          "internalType": "uint256",
          "name": "amount",
          "type": "uint256"
        }
      ],
      "name": "Stake",
      "type": "event"
    },
    {
      "anonymous": false,
      "inputs": [
        {
          "indexed": true,
          "internalType": "address",
          "name": "from",
          "type": "address"
        },
        {
          "indexed": false,
          "internalType": "uint256",
          "name": "amount",
          "type": "uint256"
        }
      ],
      "name": "Unstake",
      "type": "event"
    },
    {
      "anonymous": false,
      "inputs": [
        {
          "indexed": true,
          "internalType": "address",
          "name": "to",
          "type": "address"
        },
        {
          "indexed": false,
          "internalType": "uint256",
          "name": "amount",
          "type": "uint256"
        }
      ],
      "name": "YieldWithdraw",
      "type": "event"
    },
    {
      "inputs": [
        {
          "internalType": "address",
          "name": "",
          "type": "address"
        }
      ],
      "name": "expectedYield",
      "outputs": [
        {
          "internalType": "uint256",
          "name": "",
          "type": "uint256"
        }
      ],
      "stateMutability": "view",
      "type": "function",
      "constant": true
    },
    {
      "inputs": [
        {
          "internalType": "address",
          "name": "",
          "type": "address"
        }
      ],
      "name": "isStaking",
      "outputs": [
        {
          "internalType": "bool",
          "name": "",
          "type": "bool"
        }
      ],
      "stateMutability": "view",
      "type": "function",
      "constant": true
    },
    {
      "inputs": [],
      "name": "name",
      "outputs": [
        {
          "internalType": "string",
          "name": "",
          "type": "string"
        }
      ],
      "stateMutability": "view",
      "type": "function",
      "constant": true
    },
    {
      "inputs": [],
      "name": "owner",
      "outputs": [
        {
          "internalType": "address",
          "name": "",
          "type": "address"
        }
      ],
      "stateMutability": "view",
      "type": "function",
      "constant": true
    },
    {
      "inputs": [],
      "name": "rewardToken",
      "outputs": [
        {
          "internalType": "contract RewardToken",
          "name": "",
          "type": "address"
        }
      ],
      "stateMutability": "view",
      "type": "function",
      "constant": true
    },
    {
      "inputs": [
        {
          "internalType": "address",
          "name": "",
          "type": "address"
        }
      ],
      "name": "rewardTokenBalance",
      "outputs": [
        {
          "internalType": "uint256",
          "name": "",
          "type": "uint256"
        }
      ],
      "stateMutability": "view",
      "type": "function",
      "constant": true
    },
    {
      "inputs": [
        {
          "internalType": "uint256",
          "name": "",
          "type": "uint256"
        }
      ],
      "name": "stakers",
      "outputs": [
        {
          "internalType": "address",
          "name": "",
          "type": "address"
        }
      ],
      "stateMutability": "view",
      "type": "function",
      "constant": true
    },
    {
      "inputs": [
        {
          "internalType": "address",
          "name": "",
          "type": "address"
        }
      ],
      "name": "stakingBalance",
      "outputs": [
        {
          "internalType": "uint256",
          "name": "",
          "type": "uint256"
        }
      ],
      "stateMutability": "view",
      "type": "function",
      "constant": true
    },
    {
      "inputs": [],
      "name": "stakingToken",
      "outputs": [
        {
          "internalType": "contract StakingToken",
          "name": "",
          "type": "address"
        }
      ],
      "stateMutability": "view",
      "type": "function",
      "constant": true
    },
    {
      "inputs": [
        {
          "internalType": "address",
          "name": "",
          "type": "address"
        }
      ],
      "name": "startTime",
      "outputs": [
        {
          "internalType": "uint256",
          "name": "",
          "type": "uint256"
        }
      ],
      "stateMutability": "view",
      "type": "function",
      "constant": true
    },
    {
      "inputs": [
        {
          "internalType": "uint256",
          "name": "_amount",
          "type": "uint256"
        }
      ],
      "name": "stakeTokens",
      "outputs": [],
      "stateMutability": "nonpayable",
      "type": "function"
    },
    {
      "inputs": [
        {
          "internalType": "uint256",
          "name": "_amount",
          "type": "uint256"
        }
      ],
      "name": "unstakeTokens",
      "outputs": [],
      "stateMutability": "nonpayable",
      "type": "function"
    },
    {
      "inputs": [],
      "name": "withdrawYield",
      "outputs": [],
      "stateMutability": "nonpayable",
      "type": "function"
    },
    {
      "inputs": [],
      "name": "generateExpectedYield",
      "outputs": [],
      "stateMutability": "nonpayable",
      "type": "function"
    }
  ],
  "bytecode": "0x60806040526040518060400160405280600981526020017f546f6b656e4661726d0000000000000000000000000000000000000000000000815250600090805190602001906200005192919062000150565b503480156200005f57600080fd5b5060405162001c9938038062001c998339818101604052810190620000859190620002c3565b81600260006101000a81548173ffffffffffffffffffffffffffffffffffffffff021916908373ffffffffffffffffffffffffffffffffffffffff16021790555080600360006101000a81548173ffffffffffffffffffffffffffffffffffffffff021916908373ffffffffffffffffffffffffffffffffffffffff16021790555033600160006101000a81548173ffffffffffffffffffffffffffffffffffffffff021916908373ffffffffffffffffffffffffffffffffffffffff16021790555050506200036f565b8280546200015e9062000339565b90600052602060002090601f016020900481019282620001825760008555620001ce565b82601f106200019d57805160ff1916838001178555620001ce565b82800160010185558215620001ce579182015b82811115620001cd578251825591602001919060010190620001b0565b5b509050620001dd9190620001e1565b5090565b5b80821115620001fc576000816000905550600101620001e2565b5090565b600080fd5b600073ffffffffffffffffffffffffffffffffffffffff82169050919050565b6000620002328262000205565b9050919050565b6000620002468262000225565b9050919050565b620002588162000239565b81146200026457600080fd5b50565b60008151905062000278816200024d565b92915050565b60006200028b8262000225565b9050919050565b6200029d816200027e565b8114620002a957600080fd5b50565b600081519050620002bd8162000292565b92915050565b60008060408385031215620002dd57620002dc62000200565b5b6000620002ed8582860162000267565b92505060206200030085828601620002ac565b9150509250929050565b7f4e487b7100000000000000000000000000000000000000000000000000000000600052602260045260246000fd5b600060028204905060018216806200035257607f821691505b602082108114156200036957620003686200030a565b5b50919050565b61191a806200037f6000396000f3fe608060405234801561001057600080fd5b50600436106100ea5760003560e01c80637547c7a31161008c578063e507a8a411610066578063e507a8a414610271578063f357deba1461027b578063f7c618c114610285578063fd5e6dd1146102a3576100ea565b80637547c7a3146102075780638da5cb5b1461022357806394bbf43814610241576100ea565b8063608e4dd0116100c8578063608e4dd01461016d5780636e1dc66e146101895780636f49712b146101b957806372f702f3146101e9576100ea565b806306fdde03146100ef57806328beb26a1461010d57806345bc78ab1461013d575b600080fd5b6100f76102d3565b60405161010491906111a4565b60405180910390f35b61012760048036038101906101229190611229565b610361565b604051610134919061126f565b60405180910390f35b61015760048036038101906101529190611229565b610379565b604051610164919061126f565b60405180910390f35b610187600480360381019061018291906112b6565b610391565b005b6101a3600480360381019061019e9190611229565b61070d565b6040516101b0919061126f565b60405180910390f35b6101d360048036038101906101ce9190611229565b610725565b6040516101e091906112fe565b60405180910390f35b6101f1610745565b6040516101fe9190611378565b60405180910390f35b610221600480360381019061021c91906112b6565b61076b565b005b61022b610b7d565b60405161023891906113a2565b60405180910390f35b61025b60048036038101906102569190611229565b610ba3565b604051610268919061126f565b60405180910390f35b610279610bbb565b005b610283610e59565b005b61028d610fa0565b60405161029a91906113de565b60405180910390f35b6102bd60048036038101906102b891906112b6565b610fc6565b6040516102ca91906113a2565b60405180910390f35b600080546102e090611428565b80601f016020809104026020016040519081016040528092919081815260200182805461030c90611428565b80156103595780601f1061032e57610100808354040283529160200191610359565b820191906000526020600020905b81548152906001019060200180831161033c57829003601f168201915b505050505081565b60086020528060005260406000206000915090505481565b60056020528060005260406000206000915090505481565b600180156103de575080600560003373ffffffffffffffffffffffffffffffffffffffff1673ffffffffffffffffffffffffffffffffffffffff1681526020019081526020016000205410155b600660003373ffffffffffffffffffffffffffffffffffffffff1673ffffffffffffffffffffffffffffffffffffffff16815260200190815260200160002060006101000a81548160ff0219169083151502179055610472576040517f08c379a0000000000000000000000000000000000000000000000000000000008152600401610469906114a6565b60405180910390fd5b600061047d33611005565b905042600760003373ffffffffffffffffffffffffffffffffffffffff1673ffffffffffffffffffffffffffffffffffffffff1681526020019081526020016000208190555060008290506000925080600560003373ffffffffffffffffffffffffffffffffffffffff1673ffffffffffffffffffffffffffffffffffffffff168152602001908152602001600020600082825461051b91906114f5565b92505081905550600260009054906101000a900473ffffffffffffffffffffffffffffffffffffffff1673ffffffffffffffffffffffffffffffffffffffff1663a9059cbb33836040518363ffffffff1660e01b815260040161057f929190611529565b6020604051808303816000875af115801561059e573d6000803e3d6000fd5b505050506040513d601f19601f820116820180604052508101906105c2919061157e565b5081600960003373ffffffffffffffffffffffffffffffffffffffff1673ffffffffffffffffffffffffffffffffffffffff168152602001908152602001600020600082825461061291906115ab565b925050819055506000600560003373ffffffffffffffffffffffffffffffffffffffff1673ffffffffffffffffffffffffffffffffffffffff1681526020019081526020016000205414156106ba576000600660003373ffffffffffffffffffffffffffffffffffffffff1673ffffffffffffffffffffffffffffffffffffffff16815260200190815260200160002060006101000a81548160ff0219169083151502179055505b3373ffffffffffffffffffffffffffffffffffffffff167f85082129d87b2fe11527cb1b3b7a520aeb5aa6913f88a3d8757fe40d1db02fdd82604051610700919061126f565b60405180910390a2505050565b60076020528060005260406000206000915090505481565b60066020528060005260406000206000915054906101000a900460ff1681565b600260009054906101000a900473ffffffffffffffffffffffffffffffffffffffff1681565b600081118015610816575080600260009054906101000a900473ffffffffffffffffffffffffffffffffffffffff1673ffffffffffffffffffffffffffffffffffffffff166370a08231336040518263ffffffff1660e01b81526004016107d291906113a2565b602060405180830381865afa1580156107ef573d6000803e3d6000fd5b505050506040513d601f19601f820116820180604052508101906108139190611616565b10155b610855576040517f08c379a000000000000000000000000000000000000000000000000000000000815260040161084c9061168f565b60405180910390fd5b60011515600660003373ffffffffffffffffffffffffffffffffffffffff1673ffffffffffffffffffffffffffffffffffffffff16815260200190815260200160002060009054906101000a900460ff161515141561095f573373ffffffffffffffffffffffffffffffffffffffff167ff89e8a0eb667aa5b6a7da5835ae6cea872b0019abfb894cee07a4f2ac7dcacd06040516108f2906116fb565b60405180910390a2600061090533611005565b905080600960003373ffffffffffffffffffffffffffffffffffffffff1673ffffffffffffffffffffffffffffffffffffffff168152602001908152602001600020600082825461095691906115ab565b92505081905550505b600260009054906101000a900473ffffffffffffffffffffffffffffffffffffffff1673ffffffffffffffffffffffffffffffffffffffff166323b872dd3330846040518463ffffffff1660e01b81526004016109be9392919061171b565b6020604051808303816000875af11580156109dd573d6000803e3d6000fd5b505050506040513d601f19601f82011682018060405250810190610a01919061157e565b5080600560003373ffffffffffffffffffffffffffffffffffffffff1673ffffffffffffffffffffffffffffffffffffffff16815260200190815260200160002054610a4d91906115ab565b600560003373ffffffffffffffffffffffffffffffffffffffff1673ffffffffffffffffffffffffffffffffffffffff1681526020019081526020016000208190555042600760003373ffffffffffffffffffffffffffffffffffffffff1673ffffffffffffffffffffffffffffffffffffffff168152602001908152602001600020819055506001600660003373ffffffffffffffffffffffffffffffffffffffff1673ffffffffffffffffffffffffffffffffffffffff16815260200190815260200160002060006101000a81548160ff0219169083151502179055503373ffffffffffffffffffffffffffffffffffffffff167febedb8b3c678666e7f36970bc8f57abf6d8fa2e828c0da91ea5b75bf68ed101a82604051610b72919061126f565b60405180910390a250565b600160009054906101000a900473ffffffffffffffffffffffffffffffffffffffff1681565b60096020528060005260406000206000915090505481565b6000610bc633611005565b90506000811180610c1657506000600960003373ffffffffffffffffffffffffffffffffffffffff1673ffffffffffffffffffffffffffffffffffffffff16815260200190815260200160002054115b610c55576040517f08c379a0000000000000000000000000000000000000000000000000000000008152600401610c4c9061179e565b60405180910390fd5b6000600960003373ffffffffffffffffffffffffffffffffffffffff1673ffffffffffffffffffffffffffffffffffffffff1681526020019081526020016000205414610d35576000600960003373ffffffffffffffffffffffffffffffffffffffff1673ffffffffffffffffffffffffffffffffffffffff1681526020019081526020016000205490506000600960003373ffffffffffffffffffffffffffffffffffffffff1673ffffffffffffffffffffffffffffffffffffffff168152602001908152602001600020819055508082610d3191906115ab565b9150505b42600760003373ffffffffffffffffffffffffffffffffffffffff1673ffffffffffffffffffffffffffffffffffffffff16815260200190815260200160002081905550600360009054906101000a900473ffffffffffffffffffffffffffffffffffffffff1673ffffffffffffffffffffffffffffffffffffffff166340c10f1933836040518363ffffffff1660e01b8152600401610dd6929190611529565b600060405180830381600087803b158015610df057600080fd5b505af1158015610e04573d6000803e3d6000fd5b505050503373ffffffffffffffffffffffffffffffffffffffff167f92044e3943309ee5950e21bc7421d02c1df75f0df33c0d97c1143687b49a4c5782604051610e4e919061126f565b60405180910390a250565b60011515600660003373ffffffffffffffffffffffffffffffffffffffff1673ffffffffffffffffffffffffffffffffffffffff16815260200190815260200160002060009054906101000a900460ff16151514610eec576040517f08c379a0000000000000000000000000000000000000000000000000000000008152600401610ee39061180a565b60405180910390fd5b6000610ef733611005565b905080600860003373ffffffffffffffffffffffffffffffffffffffff1673ffffffffffffffffffffffffffffffffffffffff1681526020019081526020016000206000828254610f4891906115ab565b925050819055503373ffffffffffffffffffffffffffffffffffffffff167fa90b95f047ec54813bf33c93035600e3ddc4f14926744a7104ff32d3497fbb4b82604051610f95919061126f565b60405180910390a250565b600360009054906101000a900473ffffffffffffffffffffffffffffffffffffffff1681565b60048181548110610fd657600080fd5b906000526020600020016000915054906101000a900473ffffffffffffffffffffffffffffffffffffffff1681565b600080670de0b6b3a764000061101a846110ac565b611024919061182a565b905060006201518090506000818361103c91906118b3565b90506000670de0b6b3a764000082600560008973ffffffffffffffffffffffffffffffffffffffff1673ffffffffffffffffffffffffffffffffffffffff16815260200190815260200160002054611094919061182a565b61109e91906118b3565b905080945050505050919050565b6000804290506000600760008573ffffffffffffffffffffffffffffffffffffffff1673ffffffffffffffffffffffffffffffffffffffff16815260200190815260200160002054826110ff91906114f5565b90508092505050919050565b600081519050919050565b600082825260208201905092915050565b60005b8381101561114557808201518184015260208101905061112a565b83811115611154576000848401525b50505050565b6000601f19601f8301169050919050565b60006111768261110b565b6111808185611116565b9350611190818560208601611127565b6111998161115a565b840191505092915050565b600060208201905081810360008301526111be818461116b565b905092915050565b600080fd5b600073ffffffffffffffffffffffffffffffffffffffff82169050919050565b60006111f6826111cb565b9050919050565b611206816111eb565b811461121157600080fd5b50565b600081359050611223816111fd565b92915050565b60006020828403121561123f5761123e6111c6565b5b600061124d84828501611214565b91505092915050565b6000819050919050565b61126981611256565b82525050565b60006020820190506112846000830184611260565b92915050565b61129381611256565b811461129e57600080fd5b50565b6000813590506112b08161128a565b92915050565b6000602082840312156112cc576112cb6111c6565b5b60006112da848285016112a1565b91505092915050565b60008115159050919050565b6112f8816112e3565b82525050565b600060208201905061131360008301846112ef565b92915050565b6000819050919050565b600061133e611339611334846111cb565b611319565b6111cb565b9050919050565b600061135082611323565b9050919050565b600061136282611345565b9050919050565b61137281611357565b82525050565b600060208201905061138d6000830184611369565b92915050565b61139c816111eb565b82525050565b60006020820190506113b76000830184611393565b92915050565b60006113c882611345565b9050919050565b6113d8816113bd565b82525050565b60006020820190506113f360008301846113cf565b92915050565b7f4e487b7100000000000000000000000000000000000000000000000000000000600052602260045260246000fd5b6000600282049050600182168061144057607f821691505b60208210811415611454576114536113f9565b5b50919050565b7f4e6f7468696e6720746f20756e7374616b650000000000000000000000000000600082015250565b6000611490601283611116565b915061149b8261145a565b602082019050919050565b600060208201905081810360008301526114bf81611483565b9050919050565b7f4e487b7100000000000000000000000000000000000000000000000000000000600052601160045260246000fd5b600061150082611256565b915061150b83611256565b92508282101561151e5761151d6114c6565b5b828203905092915050565b600060408201905061153e6000830185611393565b61154b6020830184611260565b9392505050565b61155b816112e3565b811461156657600080fd5b50565b60008151905061157881611552565b92915050565b600060208284031215611594576115936111c6565b5b60006115a284828501611569565b91505092915050565b60006115b682611256565b91506115c183611256565b9250827fffffffffffffffffffffffffffffffffffffffffffffffffffffffffffffffff038211156115f6576115f56114c6565b5b828201905092915050565b6000815190506116108161128a565b92915050565b60006020828403121561162c5761162b6111c6565b5b600061163a84828501611601565b91505092915050565b7f596f752063616e6e6f74207374616b65207a65726f20746f6b656e7300000000600082015250565b6000611679601c83611116565b915061168482611643565b602082019050919050565b600060208201905081810360008301526116a88161166c565b9050919050565b7f73656e646572206973207374616b696e67210000000000000000000000000000600082015250565b60006116e5601283611116565b91506116f0826116af565b602082019050919050565b60006020820190508181036000830152611714816116d8565b9050919050565b60006060820190506117306000830186611393565b61173d6020830185611393565b61174a6040830184611260565b949350505050565b7f4e6f7468696e6720746f20776974686472617700000000000000000000000000600082015250565b6000611788601383611116565b915061179382611752565b602082019050919050565b600060208201905081810360008301526117b78161177b565b9050919050565b7f6f6e6c79207374616b696e6720757365722063616e20636865636b0000000000600082015250565b60006117f4601b83611116565b91506117ff826117be565b602082019050919050565b60006020820190508181036000830152611823816117e7565b9050919050565b600061183582611256565b915061184083611256565b9250817fffffffffffffffffffffffffffffffffffffffffffffffffffffffffffffffff0483118215151615611879576118786114c6565b5b828202905092915050565b7f4e487b7100000000000000000000000000000000000000000000000000000000600052601260045260246000fd5b60006118be82611256565b91506118c983611256565b9250826118d9576118d8611884565b5b82820490509291505056fea2646970667358221220b927b674961664890337bce77a102295599c3ca9b4a9489836bb29326d7a7c9364736f6c634300080b0033",
  "immutableReferences": {},
  "source": "// SPDX-License-Identifier: MIT\r\npragma solidity ^0.8.11;\r\n\r\nimport \"@openzeppelin/contracts/token/ERC20/IERC20.sol\";\r\nimport \"./StakingToken.sol\";\r\nimport \"./RewardToken.sol\";\r\n\r\ncontract TokenFarm {\t\t\r\n\tstring public name = \"TokenFarm\";\r\n\taddress public owner;\r\n\tStakingToken public stakingToken;\r\n\tRewardToken public rewardToken;\r\n\r\n\taddress[] public stakers;\r\n\r\n    // staker address to balance mapping\r\n\tmapping(address => uint) public stakingBalance;\r\n\r\n\tmapping(address => bool) public isStaking;\r\n\r\n\t// userAddress => timeStamp\r\n    mapping(address => uint256) public startTime;\r\n\r\n    // expected yields\r\n    mapping(address => uint256) public expectedYield;\r\n\r\n\t// userAddress => rewardTokenBalance\r\n    mapping(address => uint256) public rewardTokenBalance;\r\n\r\n\t// event to emit when stake/unstake/yieldwithdraw\r\n    event Stake(address indexed from, uint256 amount);\r\n    event Unstake(address indexed from, uint256 amount);\r\n    event YieldWithdraw(address indexed to, uint256 amount);\r\n    event ExpectedYield(address indexed from, uint256 amount);\r\n    event ConsoleLog(address indexed from, string message);\r\n\r\n\tconstructor(StakingToken _stakingToken, RewardToken _rewardToken) {\r\n\t\tstakingToken = _stakingToken;\r\n\t\trewardToken = _rewardToken;\r\n\t\towner = msg.sender;\r\n\t}\r\n\r\n    // stake/deposit token\r\n\tfunction stakeTokens(uint _amount) public {\r\n\r\n\t\trequire(\r\n            _amount > 0 &&\r\n            stakingToken.balanceOf(msg.sender) >= _amount, \r\n            \"You cannot stake zero tokens\");\r\n\r\n\t\tif(isStaking[msg.sender] == true){\r\n            emit ConsoleLog(msg.sender, \"sender is staking!\");\r\n            uint256 toTransfer = calculateYieldTotal(msg.sender);\r\n            rewardTokenBalance[msg.sender] += toTransfer;\r\n        }\r\n\r\n\t\t// transfer staking token from sender to this contract\r\n\t\tstakingToken.transferFrom(msg.sender, address(this), _amount);\r\n\r\n\t\t// update staking balance\r\n\t\tstakingBalance[msg.sender] = stakingBalance[msg.sender] + _amount;\r\n\r\n\t\tstartTime[msg.sender] = block.timestamp;\t\t\r\n\r\n\t\t// update stakng status\r\n\t\tisStaking[msg.sender] = true;\r\n\t\temit Stake(msg.sender, _amount);\r\n\t}\r\n\r\n\t// unstake/withdraw\r\n\tfunction unstakeTokens(uint256 _amount) public {\r\n\r\n\t\trequire(\r\n            isStaking[msg.sender] = true &&\r\n            stakingBalance[msg.sender] >= _amount, \r\n            \"Nothing to unstake\"\r\n        );\r\n\r\n\t\tuint256 yieldTransfer = calculateYieldTotal(msg.sender);\r\n        startTime[msg.sender] = block.timestamp;\r\n        uint256 balTransfer = _amount;\r\n        _amount = 0;\r\n        stakingBalance[msg.sender] -= balTransfer;\r\n        stakingToken.transfer(msg.sender, balTransfer);\r\n        rewardTokenBalance[msg.sender] += yieldTransfer;\r\n        if(stakingBalance[msg.sender] == 0){\r\n            isStaking[msg.sender] = false;\r\n        }\r\n        emit Unstake(msg.sender, balTransfer);\r\n\t}\r\n\r\n\r\n    function withdrawYield() public {\r\n        uint256 toTransfer = calculateYieldTotal(msg.sender);\r\n\r\n        require(\r\n            toTransfer > 0 ||\r\n            rewardTokenBalance[msg.sender] > 0,\r\n            \"Nothing to withdraw\"\r\n            );\r\n            \r\n        if(rewardTokenBalance[msg.sender] != 0){\r\n            uint256 oldBalance = rewardTokenBalance[msg.sender];\r\n            rewardTokenBalance[msg.sender] = 0;\r\n            toTransfer += oldBalance;\r\n        }\r\n\r\n        startTime[msg.sender] = block.timestamp;\r\n\t\t// mint new token for user\r\n        rewardToken.mint(msg.sender, toTransfer);\r\n        emit YieldWithdraw(msg.sender, toTransfer);\r\n    }\r\n\r\n    // this will enable user to know how much has been earned if they unstake now\r\n    function generateExpectedYield() public {\r\n        require(isStaking[msg.sender] == true, \"only staking user can check\");\r\n        uint256 _yield = calculateYieldTotal(msg.sender);\r\n        expectedYield[msg.sender] += _yield;\r\n        emit ExpectedYield(msg.sender, _yield);\r\n    }\r\n\r\n\tfunction calculateYieldTime(address user) internal view returns(uint256) {\r\n        uint256 end = block.timestamp;\r\n        uint256 totalTime = end - startTime[user];\r\n        return totalTime;\r\n    }\r\n \r\n    // 86400 represents the number of seconds in a day. Having it to be 86400 it will equate to 100% return rate in 24 hours.\r\n\tfunction calculateYieldTotal(address user) internal view returns(uint256) {\r\n        uint256 time = calculateYieldTime(user) * 10**18;\r\n        uint256 rate = 86400;\r\n        uint256 timeRate = time / rate;\r\n        uint256 rawYield = (stakingBalance[user] * timeRate) / 10**18;\r\n        return rawYield;\r\n    } \r\n}",
  "sourcePath": "F:\\coding\\learning\\youtube-projects\\solidity\\uniswap\\liquidityprovider\\colinstake\\colinstake\\contracts\\TokenFarm.sol",
  "compiler": {
    "name": "solc",
    "version": "0.8.11+commit.d7f03943.Emscripten.clang"
  },
  "schemaVersion": "3.4.7",
  "updatedAt": "2022-04-23T07:21:21.238Z",
  "networkType": "ethereum",
  "devdoc": {
    "kind": "dev",
    "methods": {},
    "version": 1
  },
  "userdoc": {
    "kind": "user",
    "methods": {},
    "version": 1
  }
}