{
  "contractName": "TokenFarm",
  "abi": [
    {
      "inputs": [
        {
          "internalType": "contract StakingToken",
          "name": "_stakingToken",
          "type": "address"
        },
        {
          "internalType": "contract RewardToken",
          "name": "_rewardToken",
          "type": "address"
        }
      ],
      "stateMutability": "nonpayable",
      "type": "constructor"
    },
    {
      "anonymous": false,
      "inputs": [
        {
          "indexed": true,
          "internalType": "address",
          "name": "from",
          "type": "address"
        },
        {
          "indexed": false,
          "internalType": "string",
          "name": "message",
          "type": "string"
        }
      ],
      "name": "ConsoleLog",
      "type": "event"
    },
    {
      "anonymous": false,
      "inputs": [
        {
          "indexed": true,
          "internalType": "address",
          "name": "from",
          "type": "address"
        },
        {
          "indexed": false,
          "internalType": "uint256",
          "name": "amount",
          "type": "uint256"
        }
      ],
      "name": "Stake",
      "type": "event"
    },
    {
      "anonymous": false,
      "inputs": [
        {
          "indexed": true,
          "internalType": "address",
          "name": "from",
          "type": "address"
        },
        {
          "indexed": false,
          "internalType": "uint256",
          "name": "amount",
          "type": "uint256"
        }
      ],
      "name": "Unstake",
      "type": "event"
    },
    {
      "anonymous": false,
      "inputs": [
        {
          "indexed": true,
          "internalType": "address",
          "name": "to",
          "type": "address"
        },
        {
          "indexed": false,
          "internalType": "uint256",
          "name": "amount",
          "type": "uint256"
        }
      ],
      "name": "YieldWithdraw",
      "type": "event"
    },
    {
      "inputs": [
        {
          "internalType": "address",
          "name": "",
          "type": "address"
        }
      ],
      "name": "isStaking",
      "outputs": [
        {
          "internalType": "bool",
          "name": "",
          "type": "bool"
        }
      ],
      "stateMutability": "view",
      "type": "function",
      "constant": true
    },
    {
      "inputs": [],
      "name": "name",
      "outputs": [
        {
          "internalType": "string",
          "name": "",
          "type": "string"
        }
      ],
      "stateMutability": "view",
      "type": "function",
      "constant": true
    },
    {
      "inputs": [],
      "name": "owner",
      "outputs": [
        {
          "internalType": "address",
          "name": "",
          "type": "address"
        }
      ],
      "stateMutability": "view",
      "type": "function",
      "constant": true
    },
    {
      "inputs": [],
      "name": "rewardToken",
      "outputs": [
        {
          "internalType": "contract RewardToken",
          "name": "",
          "type": "address"
        }
      ],
      "stateMutability": "view",
      "type": "function",
      "constant": true
    },
    {
      "inputs": [
        {
          "internalType": "address",
          "name": "",
          "type": "address"
        }
      ],
      "name": "rewardTokenBalance",
      "outputs": [
        {
          "internalType": "uint256",
          "name": "",
          "type": "uint256"
        }
      ],
      "stateMutability": "view",
      "type": "function",
      "constant": true
    },
    {
      "inputs": [
        {
          "internalType": "uint256",
          "name": "",
          "type": "uint256"
        }
      ],
      "name": "stakers",
      "outputs": [
        {
          "internalType": "address",
          "name": "",
          "type": "address"
        }
      ],
      "stateMutability": "view",
      "type": "function",
      "constant": true
    },
    {
      "inputs": [
        {
          "internalType": "address",
          "name": "",
          "type": "address"
        }
      ],
      "name": "stakingBalance",
      "outputs": [
        {
          "internalType": "uint256",
          "name": "",
          "type": "uint256"
        }
      ],
      "stateMutability": "view",
      "type": "function",
      "constant": true
    },
    {
      "inputs": [],
      "name": "stakingToken",
      "outputs": [
        {
          "internalType": "contract StakingToken",
          "name": "",
          "type": "address"
        }
      ],
      "stateMutability": "view",
      "type": "function",
      "constant": true
    },
    {
      "inputs": [
        {
          "internalType": "address",
          "name": "",
          "type": "address"
        }
      ],
      "name": "startTime",
      "outputs": [
        {
          "internalType": "uint256",
          "name": "",
          "type": "uint256"
        }
      ],
      "stateMutability": "view",
      "type": "function",
      "constant": true
    },
    {
      "inputs": [
        {
          "internalType": "uint256",
          "name": "_amount",
          "type": "uint256"
        }
      ],
      "name": "stakeTokens",
      "outputs": [],
      "stateMutability": "nonpayable",
      "type": "function"
    },
    {
      "inputs": [
        {
          "internalType": "uint256",
          "name": "_amount",
          "type": "uint256"
        }
      ],
      "name": "unstakeTokens",
      "outputs": [],
      "stateMutability": "nonpayable",
      "type": "function"
    },
    {
      "inputs": [],
      "name": "withdrawYield",
      "outputs": [],
      "stateMutability": "nonpayable",
      "type": "function"
    }
  ],
  "bytecode": "0x60806040526040518060400160405280601081526020017f436f6c696e20546f6b656e204661726d00000000000000000000000000000000815250600090805190602001906200005192919062000150565b503480156200005f57600080fd5b5060405162001a5e38038062001a5e8339818101604052810190620000859190620002c3565b81600260006101000a81548173ffffffffffffffffffffffffffffffffffffffff021916908373ffffffffffffffffffffffffffffffffffffffff16021790555080600360006101000a81548173ffffffffffffffffffffffffffffffffffffffff021916908373ffffffffffffffffffffffffffffffffffffffff16021790555033600160006101000a81548173ffffffffffffffffffffffffffffffffffffffff021916908373ffffffffffffffffffffffffffffffffffffffff16021790555050506200036f565b8280546200015e9062000339565b90600052602060002090601f016020900481019282620001825760008555620001ce565b82601f106200019d57805160ff1916838001178555620001ce565b82800160010185558215620001ce579182015b82811115620001cd578251825591602001919060010190620001b0565b5b509050620001dd9190620001e1565b5090565b5b80821115620001fc576000816000905550600101620001e2565b5090565b600080fd5b600073ffffffffffffffffffffffffffffffffffffffff82169050919050565b6000620002328262000205565b9050919050565b6000620002468262000225565b9050919050565b620002588162000239565b81146200026457600080fd5b50565b60008151905062000278816200024d565b92915050565b60006200028b8262000225565b9050919050565b6200029d816200027e565b8114620002a957600080fd5b50565b600081519050620002bd8162000292565b92915050565b60008060408385031215620002dd57620002dc62000200565b5b6000620002ed8582860162000267565b92505060206200030085828601620002ac565b9150509250929050565b7f4e487b7100000000000000000000000000000000000000000000000000000000600052602260045260246000fd5b600060028204905060018216806200035257607f821691505b602082108114156200036957620003686200030a565b5b50919050565b6116df806200037f6000396000f3fe608060405234801561001057600080fd5b50600436106100b45760003560e01c80637547c7a3116100715780637547c7a3146101a15780638da5cb5b146101bd57806394bbf438146101db578063e507a8a41461020b578063f7c618c114610215578063fd5e6dd114610233576100b4565b806306fdde03146100b957806345bc78ab146100d7578063608e4dd0146101075780636e1dc66e146101235780636f49712b1461015357806372f702f314610183575b600080fd5b6100c1610263565b6040516100ce9190610fd5565b60405180910390f35b6100f160048036038101906100ec919061105a565b6102f1565b6040516100fe91906110a0565b60405180910390f35b610121600480360381019061011c91906110e7565b610309565b005b61013d6004803603810190610138919061105a565b610685565b60405161014a91906110a0565b60405180910390f35b61016d6004803603810190610168919061105a565b61069d565b60405161017a919061112f565b60405180910390f35b61018b6106bd565b60405161019891906111a9565b60405180910390f35b6101bb60048036038101906101b691906110e7565b6106e3565b005b6101c5610af5565b6040516101d291906111d3565b60405180910390f35b6101f560048036038101906101f0919061105a565b610b1b565b60405161020291906110a0565b60405180910390f35b610213610b33565b005b61021d610dd1565b60405161022a919061120f565b60405180910390f35b61024d600480360381019061024891906110e7565b610df7565b60405161025a91906111d3565b60405180910390f35b6000805461027090611259565b80601f016020809104026020016040519081016040528092919081815260200182805461029c90611259565b80156102e95780601f106102be576101008083540402835291602001916102e9565b820191906000526020600020905b8154815290600101906020018083116102cc57829003601f168201915b505050505081565b60056020528060005260406000206000915090505481565b60018015610356575080600560003373ffffffffffffffffffffffffffffffffffffffff1673ffffffffffffffffffffffffffffffffffffffff1681526020019081526020016000205410155b600660003373ffffffffffffffffffffffffffffffffffffffff1673ffffffffffffffffffffffffffffffffffffffff16815260200190815260200160002060006101000a81548160ff02191690831515021790556103ea576040517f08c379a00000000000000000000000000000000000000000000000000000000081526004016103e1906112d7565b60405180910390fd5b60006103f533610e36565b905042600760003373ffffffffffffffffffffffffffffffffffffffff1673ffffffffffffffffffffffffffffffffffffffff1681526020019081526020016000208190555060008290506000925080600560003373ffffffffffffffffffffffffffffffffffffffff1673ffffffffffffffffffffffffffffffffffffffff16815260200190815260200160002060008282546104939190611326565b92505081905550600260009054906101000a900473ffffffffffffffffffffffffffffffffffffffff1673ffffffffffffffffffffffffffffffffffffffff1663a9059cbb33836040518363ffffffff1660e01b81526004016104f792919061135a565b6020604051808303816000875af1158015610516573d6000803e3d6000fd5b505050506040513d601f19601f8201168201806040525081019061053a91906113af565b5081600860003373ffffffffffffffffffffffffffffffffffffffff1673ffffffffffffffffffffffffffffffffffffffff168152602001908152602001600020600082825461058a91906113dc565b925050819055506000600560003373ffffffffffffffffffffffffffffffffffffffff1673ffffffffffffffffffffffffffffffffffffffff168152602001908152602001600020541415610632576000600660003373ffffffffffffffffffffffffffffffffffffffff1673ffffffffffffffffffffffffffffffffffffffff16815260200190815260200160002060006101000a81548160ff0219169083151502179055505b3373ffffffffffffffffffffffffffffffffffffffff167f85082129d87b2fe11527cb1b3b7a520aeb5aa6913f88a3d8757fe40d1db02fdd8260405161067891906110a0565b60405180910390a2505050565b60076020528060005260406000206000915090505481565b60066020528060005260406000206000915054906101000a900460ff1681565b600260009054906101000a900473ffffffffffffffffffffffffffffffffffffffff1681565b60008111801561078e575080600260009054906101000a900473ffffffffffffffffffffffffffffffffffffffff1673ffffffffffffffffffffffffffffffffffffffff166370a08231336040518263ffffffff1660e01b815260040161074a91906111d3565b602060405180830381865afa158015610767573d6000803e3d6000fd5b505050506040513d601f19601f8201168201806040525081019061078b9190611447565b10155b6107cd576040517f08c379a00000000000000000000000000000000000000000000000000000000081526004016107c4906114c0565b60405180910390fd5b60011515600660003373ffffffffffffffffffffffffffffffffffffffff1673ffffffffffffffffffffffffffffffffffffffff16815260200190815260200160002060009054906101000a900460ff16151514156108d7573373ffffffffffffffffffffffffffffffffffffffff167ff89e8a0eb667aa5b6a7da5835ae6cea872b0019abfb894cee07a4f2ac7dcacd060405161086a9061152c565b60405180910390a2600061087d33610e36565b905080600860003373ffffffffffffffffffffffffffffffffffffffff1673ffffffffffffffffffffffffffffffffffffffff16815260200190815260200160002060008282546108ce91906113dc565b92505081905550505b600260009054906101000a900473ffffffffffffffffffffffffffffffffffffffff1673ffffffffffffffffffffffffffffffffffffffff166323b872dd3330846040518463ffffffff1660e01b81526004016109369392919061154c565b6020604051808303816000875af1158015610955573d6000803e3d6000fd5b505050506040513d601f19601f8201168201806040525081019061097991906113af565b5080600560003373ffffffffffffffffffffffffffffffffffffffff1673ffffffffffffffffffffffffffffffffffffffff168152602001908152602001600020546109c591906113dc565b600560003373ffffffffffffffffffffffffffffffffffffffff1673ffffffffffffffffffffffffffffffffffffffff1681526020019081526020016000208190555042600760003373ffffffffffffffffffffffffffffffffffffffff1673ffffffffffffffffffffffffffffffffffffffff168152602001908152602001600020819055506001600660003373ffffffffffffffffffffffffffffffffffffffff1673ffffffffffffffffffffffffffffffffffffffff16815260200190815260200160002060006101000a81548160ff0219169083151502179055503373ffffffffffffffffffffffffffffffffffffffff167febedb8b3c678666e7f36970bc8f57abf6d8fa2e828c0da91ea5b75bf68ed101a82604051610aea91906110a0565b60405180910390a250565b600160009054906101000a900473ffffffffffffffffffffffffffffffffffffffff1681565b60086020528060005260406000206000915090505481565b6000610b3e33610e36565b90506000811180610b8e57506000600860003373ffffffffffffffffffffffffffffffffffffffff1673ffffffffffffffffffffffffffffffffffffffff16815260200190815260200160002054115b610bcd576040517f08c379a0000000000000000000000000000000000000000000000000000000008152600401610bc4906115cf565b60405180910390fd5b6000600860003373ffffffffffffffffffffffffffffffffffffffff1673ffffffffffffffffffffffffffffffffffffffff1681526020019081526020016000205414610cad576000600860003373ffffffffffffffffffffffffffffffffffffffff1673ffffffffffffffffffffffffffffffffffffffff1681526020019081526020016000205490506000600860003373ffffffffffffffffffffffffffffffffffffffff1673ffffffffffffffffffffffffffffffffffffffff168152602001908152602001600020819055508082610ca991906113dc565b9150505b42600760003373ffffffffffffffffffffffffffffffffffffffff1673ffffffffffffffffffffffffffffffffffffffff16815260200190815260200160002081905550600360009054906101000a900473ffffffffffffffffffffffffffffffffffffffff1673ffffffffffffffffffffffffffffffffffffffff166340c10f1933836040518363ffffffff1660e01b8152600401610d4e92919061135a565b600060405180830381600087803b158015610d6857600080fd5b505af1158015610d7c573d6000803e3d6000fd5b505050503373ffffffffffffffffffffffffffffffffffffffff167f92044e3943309ee5950e21bc7421d02c1df75f0df33c0d97c1143687b49a4c5782604051610dc691906110a0565b60405180910390a250565b600360009054906101000a900473ffffffffffffffffffffffffffffffffffffffff1681565b60048181548110610e0757600080fd5b906000526020600020016000915054906101000a900473ffffffffffffffffffffffffffffffffffffffff1681565b600080670de0b6b3a7640000610e4b84610edd565b610e5591906115ef565b9050600062015180905060008183610e6d9190611678565b90506000670de0b6b3a764000082600560008973ffffffffffffffffffffffffffffffffffffffff1673ffffffffffffffffffffffffffffffffffffffff16815260200190815260200160002054610ec591906115ef565b610ecf9190611678565b905080945050505050919050565b6000804290506000600760008573ffffffffffffffffffffffffffffffffffffffff1673ffffffffffffffffffffffffffffffffffffffff1681526020019081526020016000205482610f309190611326565b90508092505050919050565b600081519050919050565b600082825260208201905092915050565b60005b83811015610f76578082015181840152602081019050610f5b565b83811115610f85576000848401525b50505050565b6000601f19601f8301169050919050565b6000610fa782610f3c565b610fb18185610f47565b9350610fc1818560208601610f58565b610fca81610f8b565b840191505092915050565b60006020820190508181036000830152610fef8184610f9c565b905092915050565b600080fd5b600073ffffffffffffffffffffffffffffffffffffffff82169050919050565b600061102782610ffc565b9050919050565b6110378161101c565b811461104257600080fd5b50565b6000813590506110548161102e565b92915050565b6000602082840312156110705761106f610ff7565b5b600061107e84828501611045565b91505092915050565b6000819050919050565b61109a81611087565b82525050565b60006020820190506110b56000830184611091565b92915050565b6110c481611087565b81146110cf57600080fd5b50565b6000813590506110e1816110bb565b92915050565b6000602082840312156110fd576110fc610ff7565b5b600061110b848285016110d2565b91505092915050565b60008115159050919050565b61112981611114565b82525050565b60006020820190506111446000830184611120565b92915050565b6000819050919050565b600061116f61116a61116584610ffc565b61114a565b610ffc565b9050919050565b600061118182611154565b9050919050565b600061119382611176565b9050919050565b6111a381611188565b82525050565b60006020820190506111be600083018461119a565b92915050565b6111cd8161101c565b82525050565b60006020820190506111e860008301846111c4565b92915050565b60006111f982611176565b9050919050565b611209816111ee565b82525050565b60006020820190506112246000830184611200565b92915050565b7f4e487b7100000000000000000000000000000000000000000000000000000000600052602260045260246000fd5b6000600282049050600182168061127157607f821691505b602082108114156112855761128461122a565b5b50919050565b7f4e6f7468696e6720746f20756e7374616b650000000000000000000000000000600082015250565b60006112c1601283610f47565b91506112cc8261128b565b602082019050919050565b600060208201905081810360008301526112f0816112b4565b9050919050565b7f4e487b7100000000000000000000000000000000000000000000000000000000600052601160045260246000fd5b600061133182611087565b915061133c83611087565b92508282101561134f5761134e6112f7565b5b828203905092915050565b600060408201905061136f60008301856111c4565b61137c6020830184611091565b9392505050565b61138c81611114565b811461139757600080fd5b50565b6000815190506113a981611383565b92915050565b6000602082840312156113c5576113c4610ff7565b5b60006113d38482850161139a565b91505092915050565b60006113e782611087565b91506113f283611087565b9250827fffffffffffffffffffffffffffffffffffffffffffffffffffffffffffffffff03821115611427576114266112f7565b5b828201905092915050565b600081519050611441816110bb565b92915050565b60006020828403121561145d5761145c610ff7565b5b600061146b84828501611432565b91505092915050565b7f596f752063616e6e6f74207374616b65207a65726f20746f6b656e7300000000600082015250565b60006114aa601c83610f47565b91506114b582611474565b602082019050919050565b600060208201905081810360008301526114d98161149d565b9050919050565b7f73656e646572206973207374616b696e67210000000000000000000000000000600082015250565b6000611516601283610f47565b9150611521826114e0565b602082019050919050565b6000602082019050818103600083015261154581611509565b9050919050565b600060608201905061156160008301866111c4565b61156e60208301856111c4565b61157b6040830184611091565b949350505050565b7f4e6f7468696e6720746f20776974686472617700000000000000000000000000600082015250565b60006115b9601383610f47565b91506115c482611583565b602082019050919050565b600060208201905081810360008301526115e8816115ac565b9050919050565b60006115fa82611087565b915061160583611087565b9250817fffffffffffffffffffffffffffffffffffffffffffffffffffffffffffffffff048311821515161561163e5761163d6112f7565b5b828202905092915050565b7f4e487b7100000000000000000000000000000000000000000000000000000000600052601260045260246000fd5b600061168382611087565b915061168e83611087565b92508261169e5761169d611649565b5b82820490509291505056fea26469706673582212205595c711a6b2c96cae409c7a1aff5f8b742f983e5ab7a63304913063cd606d8b64736f6c634300080b0033",
  "immutableReferences": {},
  "source": "// SPDX-License-Identifier: MIT\r\npragma solidity ^0.8.11;\r\n\r\nimport \"@openzeppelin/contracts/token/ERC20/IERC20.sol\";\r\nimport \"./StakingToken.sol\";\r\nimport \"./RewardToken.sol\";\r\n\r\ncontract TokenFarm {\t\t\r\n\tstring public name = \"Colin Token Farm\";\r\n\taddress public owner;\r\n\tStakingToken public stakingToken;\r\n\tRewardToken public rewardToken;\t\r\n\r\n\taddress[] public stakers;\r\n\r\n    // staker address to balance mapping\r\n\tmapping(address => uint) public stakingBalance;\r\n\r\n\tmapping(address => bool) public isStaking;\r\n\r\n\t// userAddress => timeStamp\r\n    mapping(address => uint256) public startTime;\r\n\r\n\t// userAddress => rewardTokenBalance\r\n    mapping(address => uint256) public rewardTokenBalance;\r\n\r\n\t// event to emit when stake/unstake/yieldwithdraw\r\n    event Stake(address indexed from, uint256 amount);\r\n    event Unstake(address indexed from, uint256 amount);\r\n    event YieldWithdraw(address indexed to, uint256 amount);\r\n    event ConsoleLog(address indexed from, string message);\r\n\r\n\tconstructor(StakingToken _stakingToken, RewardToken _rewardToken) {\r\n\t\tstakingToken = _stakingToken;\r\n\t\trewardToken = _rewardToken;\r\n\t\towner = msg.sender;\r\n\t}\r\n\r\n    // stake/deposit token\r\n\tfunction stakeTokens(uint _amount) public {\r\n\r\n\t\trequire(\r\n            _amount > 0 &&\r\n            stakingToken.balanceOf(msg.sender) >= _amount, \r\n            \"You cannot stake zero tokens\");\r\n\r\n\t\tif(isStaking[msg.sender] == true){\r\n            emit ConsoleLog(msg.sender, \"sender is staking!\");\r\n            uint256 toTransfer = calculateYieldTotal(msg.sender);\r\n            rewardTokenBalance[msg.sender] += toTransfer;\r\n        }\r\n\r\n\t\t// transfer staking token from sender to this contract\r\n\t\tstakingToken.transferFrom(msg.sender, address(this), _amount);\r\n\r\n\t\t// update staking balance\r\n\t\tstakingBalance[msg.sender] = stakingBalance[msg.sender] + _amount;\r\n\r\n\t\tstartTime[msg.sender] = block.timestamp;\t\t\r\n\r\n\t\t// update stakng status\r\n\t\tisStaking[msg.sender] = true;\r\n\t\temit Stake(msg.sender, _amount);\r\n\t}\r\n\r\n\t// unstake/withdraw\r\n\tfunction unstakeTokens(uint256 _amount) public {\r\n\r\n\t\trequire(\r\n            isStaking[msg.sender] = true &&\r\n            stakingBalance[msg.sender] >= _amount, \r\n            \"Nothing to unstake\"\r\n        );\r\n\r\n\t\tuint256 yieldTransfer = calculateYieldTotal(msg.sender);\r\n        startTime[msg.sender] = block.timestamp;\r\n        uint256 balTransfer = _amount;\r\n        _amount = 0;\r\n        stakingBalance[msg.sender] -= balTransfer;\r\n        stakingToken.transfer(msg.sender, balTransfer);\r\n        rewardTokenBalance[msg.sender] += yieldTransfer;\r\n        if(stakingBalance[msg.sender] == 0){\r\n            isStaking[msg.sender] = false;\r\n        }\r\n        emit Unstake(msg.sender, balTransfer);\r\n\t}\r\n\r\n\r\n    function withdrawYield() public {\r\n        uint256 toTransfer = calculateYieldTotal(msg.sender);\r\n\r\n        require(\r\n            toTransfer > 0 ||\r\n            rewardTokenBalance[msg.sender] > 0,\r\n            \"Nothing to withdraw\"\r\n            );\r\n            \r\n        if(rewardTokenBalance[msg.sender] != 0){\r\n            uint256 oldBalance = rewardTokenBalance[msg.sender];\r\n            rewardTokenBalance[msg.sender] = 0;\r\n            toTransfer += oldBalance;\r\n        }\r\n\r\n        startTime[msg.sender] = block.timestamp;\r\n\t\t// mint new token for user\r\n        rewardToken.mint(msg.sender, toTransfer);\r\n        emit YieldWithdraw(msg.sender, toTransfer);\r\n    } \r\n\r\n\tfunction calculateYieldTime(address user) internal view returns(uint256) {\r\n        uint256 end = block.timestamp;\r\n        uint256 totalTime = end - startTime[user];\r\n        return totalTime;\r\n    }\r\n \r\n    // 86400 represents the number of seconds in a day. Having it to be 86400 it will equate to 100% return rate in 24 hours.\r\n\tfunction calculateYieldTotal(address user) internal view returns(uint256) {\r\n        uint256 time = calculateYieldTime(user) * 10**18;\r\n        uint256 rate = 86400;\r\n        uint256 timeRate = time / rate;\r\n        uint256 rawYield = (stakingBalance[user] * timeRate) / 10**18;\r\n        return rawYield;\r\n    } \r\n}",
  "sourcePath": "F:\\coding\\learning\\youtube-projects\\solidity\\uniswap\\liquidityprovider\\colinstake\\colinstake\\contracts\\TokenFarm.sol",
  "compiler": {
    "name": "solc",
    "version": "0.8.11+commit.d7f03943.Emscripten.clang"
  },
  "schemaVersion": "3.4.4",
  "updatedAt": "2022-03-24T01:16:48.813Z",
  "networkType": "ethereum",
  "devdoc": {
    "kind": "dev",
    "methods": {},
    "version": 1
  },
  "userdoc": {
    "kind": "user",
    "methods": {},
    "version": 1
  }
}