{
  "contractName": "TokenFarm",
  "abi": [
    {
      "inputs": [
        {
          "internalType": "contract Token1",
          "name": "_token1",
          "type": "address"
        },
        {
          "internalType": "contract Token2",
          "name": "_token2",
          "type": "address"
        }
      ],
      "stateMutability": "nonpayable",
      "type": "constructor"
    },
    {
      "inputs": [
        {
          "internalType": "address",
          "name": "",
          "type": "address"
        }
      ],
      "name": "hasStaked",
      "outputs": [
        {
          "internalType": "bool",
          "name": "",
          "type": "bool"
        }
      ],
      "stateMutability": "view",
      "type": "function"
    },
    {
      "inputs": [
        {
          "internalType": "address",
          "name": "",
          "type": "address"
        }
      ],
      "name": "isStaking",
      "outputs": [
        {
          "internalType": "bool",
          "name": "",
          "type": "bool"
        }
      ],
      "stateMutability": "view",
      "type": "function"
    },
    {
      "inputs": [],
      "name": "name",
      "outputs": [
        {
          "internalType": "string",
          "name": "",
          "type": "string"
        }
      ],
      "stateMutability": "view",
      "type": "function"
    },
    {
      "inputs": [],
      "name": "owner",
      "outputs": [
        {
          "internalType": "address",
          "name": "",
          "type": "address"
        }
      ],
      "stateMutability": "view",
      "type": "function"
    },
    {
      "inputs": [
        {
          "internalType": "uint256",
          "name": "",
          "type": "uint256"
        }
      ],
      "name": "stakers",
      "outputs": [
        {
          "internalType": "address",
          "name": "",
          "type": "address"
        }
      ],
      "stateMutability": "view",
      "type": "function"
    },
    {
      "inputs": [
        {
          "internalType": "address",
          "name": "",
          "type": "address"
        }
      ],
      "name": "stakingBalance",
      "outputs": [
        {
          "internalType": "uint256",
          "name": "",
          "type": "uint256"
        }
      ],
      "stateMutability": "view",
      "type": "function"
    },
    {
      "inputs": [],
      "name": "token1",
      "outputs": [
        {
          "internalType": "contract Token1",
          "name": "",
          "type": "address"
        }
      ],
      "stateMutability": "view",
      "type": "function"
    },
    {
      "inputs": [],
      "name": "token2",
      "outputs": [
        {
          "internalType": "contract Token2",
          "name": "",
          "type": "address"
        }
      ],
      "stateMutability": "view",
      "type": "function"
    },
    {
      "inputs": [
        {
          "internalType": "uint256",
          "name": "_amount",
          "type": "uint256"
        }
      ],
      "name": "stakeTokens",
      "outputs": [],
      "stateMutability": "nonpayable",
      "type": "function"
    },
    {
      "inputs": [],
      "name": "unstakeTokens",
      "outputs": [],
      "stateMutability": "nonpayable",
      "type": "function"
    },
    {
      "inputs": [],
      "name": "rewardTokens",
      "outputs": [],
      "stateMutability": "nonpayable",
      "type": "function"
    }
  ],
  "bytecode": "0x60806040526040518060400160405280601081526020017f436f6c696e20546f6b656e204661726d00000000000000000000000000000000815250600090805190602001906200005192919062000150565b503480156200005f57600080fd5b506040516200142b3803806200142b8339818101604052810190620000859190620002c3565b81600260006101000a81548173ffffffffffffffffffffffffffffffffffffffff021916908373ffffffffffffffffffffffffffffffffffffffff16021790555080600360006101000a81548173ffffffffffffffffffffffffffffffffffffffff021916908373ffffffffffffffffffffffffffffffffffffffff16021790555033600160006101000a81548173ffffffffffffffffffffffffffffffffffffffff021916908373ffffffffffffffffffffffffffffffffffffffff16021790555050506200036f565b8280546200015e9062000339565b90600052602060002090601f016020900481019282620001825760008555620001ce565b82601f106200019d57805160ff1916838001178555620001ce565b82800160010185558215620001ce579182015b82811115620001cd578251825591602001919060010190620001b0565b5b509050620001dd9190620001e1565b5090565b5b80821115620001fc576000816000905550600101620001e2565b5090565b600080fd5b600073ffffffffffffffffffffffffffffffffffffffff82169050919050565b6000620002328262000205565b9050919050565b6000620002468262000225565b9050919050565b620002588162000239565b81146200026457600080fd5b50565b60008151905062000278816200024d565b92915050565b60006200028b8262000225565b9050919050565b6200029d816200027e565b8114620002a957600080fd5b50565b600081519050620002bd8162000292565b92915050565b60008060408385031215620002dd57620002dc62000200565b5b6000620002ed8582860162000267565b92505060206200030085828601620002ac565b9150509250929050565b7f4e487b7100000000000000000000000000000000000000000000000000000000600052602260045260246000fd5b600060028204905060018216806200035257607f821691505b602082108114156200036957620003686200030a565b5b50919050565b6110ac806200037f6000396000f3fe608060405234801561001057600080fd5b50600436106100a95760003560e01c80638da5cb5b116100715780638da5cb5b14610166578063a5ce413b14610184578063c2b18aa01461018e578063c93c8f3414610198578063d21220a7146101c8578063fd5e6dd1146101e6576100a9565b806306fdde03146100ae57806325be124e146100cc57806345bc78ab146100ea5780636f49712b1461011a5780637547c7a31461014a575b600080fd5b6100b6610216565b6040516100c39190610b32565b60405180910390f35b6100d46102a4565b6040516100e19190610bd3565b60405180910390f35b61010460048036038101906100ff9190610c31565b6102ca565b6040516101119190610c77565b60405180910390f35b610134600480360381019061012f9190610c31565b6102e2565b6040516101419190610cad565b60405180910390f35b610164600480360381019061015f9190610cf4565b610302565b005b61016e61063c565b60405161017b9190610d30565b60405180910390f35b61018c610662565b005b61019661082a565b005b6101b260048036038101906101ad9190610c31565b610a14565b6040516101bf9190610cad565b60405180910390f35b6101d0610a34565b6040516101dd9190610d6c565b60405180910390f35b61020060048036038101906101fb9190610cf4565b610a5a565b60405161020d9190610d30565b60405180910390f35b6000805461022390610db6565b80601f016020809104026020016040519081016040528092919081815260200182805461024f90610db6565b801561029c5780601f106102715761010080835404028352916020019161029c565b820191906000526020600020905b81548152906001019060200180831161027f57829003601f168201915b505050505081565b600360009054906101000a900473ffffffffffffffffffffffffffffffffffffffff1681565b60056020528060005260406000206000915090505481565b60076020528060005260406000206000915054906101000a900460ff1681565b600360009054906101000a900473ffffffffffffffffffffffffffffffffffffffff1673ffffffffffffffffffffffffffffffffffffffff1663095ea7b333836040518363ffffffff1660e01b815260040161035f929190610de8565b6020604051808303816000875af115801561037e573d6000803e3d6000fd5b505050506040513d601f19601f820116820180604052508101906103a29190610e3d565b50600360009054906101000a900473ffffffffffffffffffffffffffffffffffffffff1673ffffffffffffffffffffffffffffffffffffffff166323b872dd3330846040518463ffffffff1660e01b815260040161040293929190610e6a565b6020604051808303816000875af1158015610421573d6000803e3d6000fd5b505050506040513d601f19601f820116820180604052508101906104459190610e3d565b5080600560003373ffffffffffffffffffffffffffffffffffffffff1673ffffffffffffffffffffffffffffffffffffffff168152602001908152602001600020546104919190610ed0565b600560003373ffffffffffffffffffffffffffffffffffffffff1673ffffffffffffffffffffffffffffffffffffffff16815260200190815260200160002081905550600660003373ffffffffffffffffffffffffffffffffffffffff1673ffffffffffffffffffffffffffffffffffffffff16815260200190815260200160002060009054906101000a900460ff16610589576004339080600181540180825580915050600190039060005260206000200160009091909190916101000a81548173ffffffffffffffffffffffffffffffffffffffff021916908373ffffffffffffffffffffffffffffffffffffffff1602179055505b6001600760003373ffffffffffffffffffffffffffffffffffffffff1673ffffffffffffffffffffffffffffffffffffffff16815260200190815260200160002060006101000a81548160ff0219169083151502179055506001600660003373ffffffffffffffffffffffffffffffffffffffff1673ffffffffffffffffffffffffffffffffffffffff16815260200190815260200160002060006101000a81548160ff02191690831515021790555050565b600160009054906101000a900473ffffffffffffffffffffffffffffffffffffffff1681565b6000600560003373ffffffffffffffffffffffffffffffffffffffff1673ffffffffffffffffffffffffffffffffffffffff168152602001908152602001600020549050600081116106e9576040517f08c379a00000000000000000000000000000000000000000000000000000000081526004016106e090610f72565b60405180910390fd5b600360009054906101000a900473ffffffffffffffffffffffffffffffffffffffff1673ffffffffffffffffffffffffffffffffffffffff1663a9059cbb33836040518363ffffffff1660e01b8152600401610746929190610de8565b6020604051808303816000875af1158015610765573d6000803e3d6000fd5b505050506040513d601f19601f820116820180604052508101906107899190610e3d565b506000600560003373ffffffffffffffffffffffffffffffffffffffff1673ffffffffffffffffffffffffffffffffffffffff168152602001908152602001600020819055506000600760003373ffffffffffffffffffffffffffffffffffffffff1673ffffffffffffffffffffffffffffffffffffffff16815260200190815260200160002060006101000a81548160ff02191690831515021790555050565b600160009054906101000a900473ffffffffffffffffffffffffffffffffffffffff1673ffffffffffffffffffffffffffffffffffffffff163373ffffffffffffffffffffffffffffffffffffffff16146108ba576040517f08c379a00000000000000000000000000000000000000000000000000000000081526004016108b190610fde565b60405180910390fd5b60005b600480549050811015610a11576000600482815481106108e0576108df610ffe565b5b9060005260206000200160009054906101000a900473ffffffffffffffffffffffffffffffffffffffff1690506000600560008373ffffffffffffffffffffffffffffffffffffffff1673ffffffffffffffffffffffffffffffffffffffff16815260200190815260200160002054905060008111156109fc57600260009054906101000a900473ffffffffffffffffffffffffffffffffffffffff1673ffffffffffffffffffffffffffffffffffffffff1663a9059cbb83836040518363ffffffff1660e01b81526004016109b7929190610de8565b6020604051808303816000875af11580156109d6573d6000803e3d6000fd5b505050506040513d601f19601f820116820180604052508101906109fa9190610e3d565b505b50508080610a099061102d565b9150506108bd565b50565b60066020528060005260406000206000915054906101000a900460ff1681565b600260009054906101000a900473ffffffffffffffffffffffffffffffffffffffff1681565b60048181548110610a6a57600080fd5b906000526020600020016000915054906101000a900473ffffffffffffffffffffffffffffffffffffffff1681565b600081519050919050565b600082825260208201905092915050565b60005b83811015610ad3578082015181840152602081019050610ab8565b83811115610ae2576000848401525b50505050565b6000601f19601f8301169050919050565b6000610b0482610a99565b610b0e8185610aa4565b9350610b1e818560208601610ab5565b610b2781610ae8565b840191505092915050565b60006020820190508181036000830152610b4c8184610af9565b905092915050565b600073ffffffffffffffffffffffffffffffffffffffff82169050919050565b6000819050919050565b6000610b99610b94610b8f84610b54565b610b74565b610b54565b9050919050565b6000610bab82610b7e565b9050919050565b6000610bbd82610ba0565b9050919050565b610bcd81610bb2565b82525050565b6000602082019050610be86000830184610bc4565b92915050565b600080fd5b6000610bfe82610b54565b9050919050565b610c0e81610bf3565b8114610c1957600080fd5b50565b600081359050610c2b81610c05565b92915050565b600060208284031215610c4757610c46610bee565b5b6000610c5584828501610c1c565b91505092915050565b6000819050919050565b610c7181610c5e565b82525050565b6000602082019050610c8c6000830184610c68565b92915050565b60008115159050919050565b610ca781610c92565b82525050565b6000602082019050610cc26000830184610c9e565b92915050565b610cd181610c5e565b8114610cdc57600080fd5b50565b600081359050610cee81610cc8565b92915050565b600060208284031215610d0a57610d09610bee565b5b6000610d1884828501610cdf565b91505092915050565b610d2a81610bf3565b82525050565b6000602082019050610d456000830184610d21565b92915050565b6000610d5682610ba0565b9050919050565b610d6681610d4b565b82525050565b6000602082019050610d816000830184610d5d565b92915050565b7f4e487b7100000000000000000000000000000000000000000000000000000000600052602260045260246000fd5b60006002820490506001821680610dce57607f821691505b60208210811415610de257610de1610d87565b5b50919050565b6000604082019050610dfd6000830185610d21565b610e0a6020830184610c68565b9392505050565b610e1a81610c92565b8114610e2557600080fd5b50565b600081519050610e3781610e11565b92915050565b600060208284031215610e5357610e52610bee565b5b6000610e6184828501610e28565b91505092915050565b6000606082019050610e7f6000830186610d21565b610e8c6020830185610d21565b610e996040830184610c68565b949350505050565b7f4e487b7100000000000000000000000000000000000000000000000000000000600052601160045260246000fd5b6000610edb82610c5e565b9150610ee683610c5e565b9250827fffffffffffffffffffffffffffffffffffffffffffffffffffffffffffffffff03821115610f1b57610f1a610ea1565b5b828201905092915050565b7f6e6f207374616b6520746f6b656e20666f756e64000000000000000000000000600082015250565b6000610f5c601483610aa4565b9150610f6782610f26565b602082019050919050565b60006020820190508181036000830152610f8b81610f4f565b9050919050565b7f63616c6c6572206d75737420626520746865206f776e65720000000000000000600082015250565b6000610fc8601883610aa4565b9150610fd382610f92565b602082019050919050565b60006020820190508181036000830152610ff781610fbb565b9050919050565b7f4e487b7100000000000000000000000000000000000000000000000000000000600052603260045260246000fd5b600061103882610c5e565b91507fffffffffffffffffffffffffffffffffffffffffffffffffffffffffffffffff82141561106b5761106a610ea1565b5b60018201905091905056fea2646970667358221220691459f0c2fbae5fa016506f12eac618c544d2ece8de7937eb2fc29fdaf8e72564736f6c634300080b0033",
  "immutableReferences": {},
  "source": "// SPDX-License-Identifier: MIT\r\npragma solidity ^0.8.11;\r\n\r\nimport \"./Token1.sol\";\r\nimport \"./Token2.sol\";\r\n\r\ncontract TokenFarm {\t\t\r\n\tstring public name = \"Colin Token Farm\";\r\n\taddress public owner;\r\n\tToken1 public token1;\r\n\tToken2 public token2;\t\r\n\r\n\taddress[] public stakers;\r\n\r\n    // staker address to balance mapping\r\n\tmapping(address => uint) public stakingBalance;\r\n\r\n    // staker staking state\r\n\tmapping(address => bool) public hasStaked;\r\n\r\n\tmapping(address => bool) public isStaking;\r\n\r\n\tconstructor(Token1 _token1, Token2 _token2) public {\r\n\t\ttoken1 = _token1;\r\n\t\ttoken2 = _token2;\r\n\t\towner = msg.sender;\r\n\t}\r\n\r\n    // stake/deposit token\r\n\tfunction stakeTokens(uint _amount) public {\t\t\t\r\n\t\t// approve transfer\r\n        token2.approve(msg.sender, _amount);\t\r\n\t\t// transfer token2 to this contract for staking\r\n\t\ttoken2.transferFrom(msg.sender, address(this), _amount);\r\n\r\n\t\t// update staking balance\r\n\t\tstakingBalance[msg.sender] = stakingBalance[msg.sender] + _amount;\t\t\r\n\r\n\t\t// right now contract only allow 1 stake per user.\r\n\t\tif(!hasStaked[msg.sender]) {\r\n\t\t\tstakers.push(msg.sender);\r\n\t\t}\r\n\r\n\t\t// update stakng status\r\n\t\tisStaking[msg.sender] = true;\r\n\t\thasStaked[msg.sender] = true;\r\n\t}\r\n\r\n\t// unstake/withdraw\r\n\tfunction unstakeTokens() public {\r\n\t\t// fetch staking balance\r\n\t\tuint balance = stakingBalance[msg.sender];\r\n\r\n\t\t// require amount greter than 0\r\n\t\trequire(balance > 0, \"no stake token found\");\r\n\r\n\t\t// transfer Mock Dai tokens to this contract for staking\r\n\t\ttoken2.transfer(msg.sender, balance);\r\n\r\n\t\t// reset staking balance\r\n\t\tstakingBalance[msg.sender] = 0;\r\n\r\n\t\t// update staking status\r\n\t\tisStaking[msg.sender] = false;\r\n\t}\r\n\r\n\r\n\tfunction rewardTokens() public {\r\n\t\t// only owner can call this function\r\n\t\trequire(msg.sender == owner, \"caller must be the owner\");\r\n\r\n\t\t// issue tokens to all stakers\r\n\t\tfor (uint i=0; i<stakers.length; i++) {\r\n\t\t\taddress recipient = stakers[i];\r\n\t\t\tuint balance = stakingBalance[recipient];\r\n\t\t\tif(balance > 0) {\r\n\t\t\t\ttoken1.transfer(recipient, balance);\r\n\t\t\t}\t\t\t\r\n\t\t}\r\n\t}\r\n\r\n}",
  "sourcePath": "F:\\coding\\learning\\youtube-projects\\solidity\\uniswap\\liquidityprovider\\colinstake\\colinstake\\contracts\\TokenFarm.sol",
  "compiler": {
    "name": "solc",
    "version": "0.8.11+commit.d7f03943.Emscripten.clang"
  },
  "schemaVersion": "3.4.4",
  "updatedAt": "2022-03-03T15:03:20.263Z",
  "devdoc": {
    "kind": "dev",
    "methods": {},
    "version": 1
  },
  "userdoc": {
    "kind": "user",
    "methods": {},
    "version": 1
  }
}